{
  "contractName": "IPManager",
  "abi": [
    {
      "constant": true,
      "inputs": [],
      "name": "licensor",
      "outputs": [
        {
          "name": "",
          "type": "address"
        }
      ],
      "payable": false,
      "stateMutability": "view",
      "type": "function",
      "signature": "0x0144f989"
    },
    {
      "constant": true,
      "inputs": [],
      "name": "seller",
      "outputs": [
        {
          "name": "",
          "type": "address"
        }
      ],
      "payable": false,
      "stateMutability": "view",
      "type": "function",
      "signature": "0x08551a53"
    },
    {
      "constant": true,
      "inputs": [],
      "name": "verifier",
      "outputs": [
        {
          "name": "",
          "type": "address"
        }
      ],
      "payable": false,
      "stateMutability": "view",
      "type": "function",
      "signature": "0x2b7ac3f3"
    },
    {
      "constant": true,
      "inputs": [],
      "name": "licenseCount",
      "outputs": [
        {
          "name": "",
          "type": "uint256"
        }
      ],
      "payable": false,
      "stateMutability": "view",
      "type": "function",
      "signature": "0x2fbccc27"
    },
    {
      "constant": true,
      "inputs": [
        {
          "name": "",
          "type": "uint256"
        }
      ],
      "name": "licenses",
      "outputs": [
        {
          "name": "licensee",
          "type": "address"
        },
        {
          "name": "license_date",
          "type": "uint256"
        },
        {
          "name": "license_exp_date",
          "type": "uint256"
        },
        {
          "name": "licensor",
          "type": "address"
        },
        {
          "name": "terms_conditions",
          "type": "string"
        },
        {
          "name": "paid_amount",
          "type": "uint256"
        },
        {
          "components": [
            {
              "name": "id",
              "type": "uint256"
            },
            {
              "name": "version",
              "type": "uint256"
            },
            {
              "name": "owner",
              "type": "address"
            },
            {
              "name": "price_assign",
              "type": "uint256"
            },
            {
              "name": "price_license",
              "type": "uint256"
            },
            {
              "name": "verifierPayment",
              "type": "uint256"
            },
            {
              "components": [
                {
                  "name": "grant_no",
                  "type": "uint256"
                },
                {
                  "name": "grant_date",
                  "type": "uint256"
                },
                {
                  "name": "application_no",
                  "type": "uint256"
                },
                {
                  "name": "applicant",
                  "type": "string"
                },
                {
                  "name": "inventor",
                  "type": "string"
                },
                {
                  "name": "publication_number",
                  "type": "string"
                },
                {
                  "name": "registerd_country",
                  "type": "string"
                },
                {
                  "name": "description",
                  "type": "string"
                },
                {
                  "name": "application_date",
                  "type": "uint256"
                },
                {
                  "name": "publication_date",
                  "type": "uint256"
                },
                {
                  "name": "publication_kind",
                  "type": "string"
                },
                {
                  "name": "name",
                  "type": "string"
                }
              ],
              "name": "patent",
              "type": "tuple"
            },
            {
              "name": "max_license_count",
              "type": "uint256"
            },
            {
              "name": "licenseCount",
              "type": "uint256"
            },
            {
              "name": "max_renew_count",
              "type": "uint256"
            },
            {
              "name": "renewCount",
              "type": "uint256"
            }
          ],
          "name": "patentContainer",
          "type": "tuple"
        }
      ],
      "payable": false,
      "stateMutability": "view",
      "type": "function",
      "signature": "0x33790845"
    },
    {
      "constant": true,
      "inputs": [
        {
          "name": "",
          "type": "uint256"
        }
      ],
      "name": "ownerships",
      "outputs": [
        {
          "name": "assigner",
          "type": "address"
        },
        {
          "name": "assignee",
          "type": "address"
        },
        {
          "name": "ownership_start_date",
          "type": "uint256"
        },
        {
          "name": "terms_conditions",
          "type": "string"
        },
        {
          "name": "paid_amount",
          "type": "uint256"
        },
        {
          "components": [
            {
              "name": "id",
              "type": "uint256"
            },
            {
              "name": "version",
              "type": "uint256"
            },
            {
              "name": "owner",
              "type": "address"
            },
            {
              "name": "price_assign",
              "type": "uint256"
            },
            {
              "name": "price_license",
              "type": "uint256"
            },
            {
              "name": "verifierPayment",
              "type": "uint256"
            },
            {
              "components": [
                {
                  "name": "grant_no",
                  "type": "uint256"
                },
                {
                  "name": "grant_date",
                  "type": "uint256"
                },
                {
                  "name": "application_no",
                  "type": "uint256"
                },
                {
                  "name": "applicant",
                  "type": "string"
                },
                {
                  "name": "inventor",
                  "type": "string"
                },
                {
                  "name": "publication_number",
                  "type": "string"
                },
                {
                  "name": "registerd_country",
                  "type": "string"
                },
                {
                  "name": "description",
                  "type": "string"
                },
                {
                  "name": "application_date",
                  "type": "uint256"
                },
                {
                  "name": "publication_date",
                  "type": "uint256"
                },
                {
                  "name": "publication_kind",
                  "type": "string"
                },
                {
                  "name": "name",
                  "type": "string"
                }
              ],
              "name": "patent",
              "type": "tuple"
            },
            {
              "name": "max_license_count",
              "type": "uint256"
            },
            {
              "name": "licenseCount",
              "type": "uint256"
            },
            {
              "name": "max_renew_count",
              "type": "uint256"
            },
            {
              "name": "renewCount",
              "type": "uint256"
            }
          ],
          "name": "patentContainer",
          "type": "tuple"
        }
      ],
      "payable": false,
      "stateMutability": "view",
      "type": "function",
      "signature": "0x3acefa20"
    },
    {
      "constant": true,
      "inputs": [
        {
          "name": "",
          "type": "uint256"
        }
      ],
      "name": "renewals",
      "outputs": [
        {
          "name": "renewal_date",
          "type": "uint256"
        },
        {
          "components": [
            {
              "name": "id",
              "type": "uint256"
            },
            {
              "name": "version",
              "type": "uint256"
            },
            {
              "name": "owner",
              "type": "address"
            },
            {
              "name": "price_assign",
              "type": "uint256"
            },
            {
              "name": "price_license",
              "type": "uint256"
            },
            {
              "name": "verifierPayment",
              "type": "uint256"
            },
            {
              "components": [
                {
                  "name": "grant_no",
                  "type": "uint256"
                },
                {
                  "name": "grant_date",
                  "type": "uint256"
                },
                {
                  "name": "application_no",
                  "type": "uint256"
                },
                {
                  "name": "applicant",
                  "type": "string"
                },
                {
                  "name": "inventor",
                  "type": "string"
                },
                {
                  "name": "publication_number",
                  "type": "string"
                },
                {
                  "name": "registerd_country",
                  "type": "string"
                },
                {
                  "name": "description",
                  "type": "string"
                },
                {
                  "name": "application_date",
                  "type": "uint256"
                },
                {
                  "name": "publication_date",
                  "type": "uint256"
                },
                {
                  "name": "publication_kind",
                  "type": "string"
                },
                {
                  "name": "name",
                  "type": "string"
                }
              ],
              "name": "patent",
              "type": "tuple"
            },
            {
              "name": "max_license_count",
              "type": "uint256"
            },
            {
              "name": "licenseCount",
              "type": "uint256"
            },
            {
              "name": "max_renew_count",
              "type": "uint256"
            },
            {
              "name": "renewCount",
              "type": "uint256"
            }
          ],
          "name": "patentContainer",
          "type": "tuple"
        }
      ],
      "payable": false,
      "stateMutability": "view",
      "type": "function",
      "signature": "0x3d096d66"
    },
    {
      "constant": true,
      "inputs": [],
      "name": "title",
      "outputs": [
        {
          "name": "",
          "type": "string"
        }
      ],
      "payable": false,
      "stateMutability": "view",
      "type": "function",
      "signature": "0x4a79d50c"
    },
    {
      "constant": true,
      "inputs": [],
      "name": "licensee",
      "outputs": [
        {
          "name": "",
          "type": "address"
        }
      ],
      "payable": false,
      "stateMutability": "view",
      "type": "function",
      "signature": "0x5e3044cb"
    },
    {
      "constant": true,
      "inputs": [],
      "name": "buyer",
      "outputs": [
        {
          "name": "",
          "type": "address"
        }
      ],
      "payable": false,
      "stateMutability": "view",
      "type": "function",
      "signature": "0x7150d8ae"
    },
    {
      "constant": true,
      "inputs": [],
      "name": "applicant",
      "outputs": [
        {
          "name": "",
          "type": "address"
        }
      ],
      "payable": false,
      "stateMutability": "view",
      "type": "function",
      "signature": "0x88e687ea"
    },
    {
      "constant": true,
      "inputs": [],
      "name": "owner",
      "outputs": [
        {
          "name": "",
          "type": "address"
        }
      ],
      "payable": false,
      "stateMutability": "view",
      "type": "function",
      "signature": "0x8da5cb5b"
    },
    {
      "constant": true,
      "inputs": [],
      "name": "ownershipCount",
      "outputs": [
        {
          "name": "",
          "type": "uint256"
        }
      ],
      "payable": false,
      "stateMutability": "view",
      "type": "function",
      "signature": "0xa0941da6"
    },
    {
      "constant": true,
      "inputs": [],
      "name": "patentCount",
      "outputs": [
        {
          "name": "",
          "type": "uint256"
        }
      ],
      "payable": false,
      "stateMutability": "view",
      "type": "function",
      "signature": "0xb084c841"
    },
    {
      "constant": true,
      "inputs": [],
      "name": "renewCount",
      "outputs": [
        {
          "name": "",
          "type": "uint256"
        }
      ],
      "payable": false,
      "stateMutability": "view",
      "type": "function",
      "signature": "0xd2d31dd2"
    },
    {
      "constant": true,
      "inputs": [
        {
          "name": "",
          "type": "uint256"
        }
      ],
      "name": "applications",
      "outputs": [
        {
          "name": "id",
          "type": "uint256"
        },
        {
          "name": "version",
          "type": "uint256"
        },
        {
          "name": "owner",
          "type": "address"
        },
        {
          "name": "price_assign",
          "type": "uint256"
        },
        {
          "name": "price_license",
          "type": "uint256"
        },
        {
          "name": "verifierPayment",
          "type": "uint256"
        },
        {
          "components": [
            {
              "name": "grant_no",
              "type": "uint256"
            },
            {
              "name": "grant_date",
              "type": "uint256"
            },
            {
              "name": "application_no",
              "type": "uint256"
            },
            {
              "name": "applicant",
              "type": "string"
            },
            {
              "name": "inventor",
              "type": "string"
            },
            {
              "name": "publication_number",
              "type": "string"
            },
            {
              "name": "registerd_country",
              "type": "string"
            },
            {
              "name": "description",
              "type": "string"
            },
            {
              "name": "application_date",
              "type": "uint256"
            },
            {
              "name": "publication_date",
              "type": "uint256"
            },
            {
              "name": "publication_kind",
              "type": "string"
            },
            {
              "name": "name",
              "type": "string"
            }
          ],
          "name": "patent",
          "type": "tuple"
        },
        {
          "name": "max_license_count",
          "type": "uint256"
        },
        {
          "name": "licenseCount",
          "type": "uint256"
        },
        {
          "name": "max_renew_count",
          "type": "uint256"
        },
        {
          "name": "renewCount",
          "type": "uint256"
        }
      ],
      "payable": false,
      "stateMutability": "view",
      "type": "function",
      "signature": "0xdfefadff"
    },
    {
      "constant": true,
      "inputs": [],
      "name": "applicationCount",
      "outputs": [
        {
          "name": "",
          "type": "uint256"
        }
      ],
      "payable": false,
      "stateMutability": "view",
      "type": "function",
      "signature": "0xe2aad4a0"
    },
    {
      "constant": true,
      "inputs": [],
      "name": "verifyCount",
      "outputs": [
        {
          "name": "",
          "type": "uint256"
        }
      ],
      "payable": false,
      "stateMutability": "view",
      "type": "function",
      "signature": "0xf0082920"
    },
    {
      "constant": true,
      "inputs": [
        {
          "name": "",
          "type": "uint256"
        }
      ],
      "name": "patents",
      "outputs": [
        {
          "name": "id",
          "type": "uint256"
        },
        {
          "name": "version",
          "type": "uint256"
        },
        {
          "name": "owner",
          "type": "address"
        },
        {
          "name": "price_assign",
          "type": "uint256"
        },
        {
          "name": "price_license",
          "type": "uint256"
        },
        {
          "name": "verifierPayment",
          "type": "uint256"
        },
        {
          "components": [
            {
              "name": "grant_no",
              "type": "uint256"
            },
            {
              "name": "grant_date",
              "type": "uint256"
            },
            {
              "name": "application_no",
              "type": "uint256"
            },
            {
              "name": "applicant",
              "type": "string"
            },
            {
              "name": "inventor",
              "type": "string"
            },
            {
              "name": "publication_number",
              "type": "string"
            },
            {
              "name": "registerd_country",
              "type": "string"
            },
            {
              "name": "description",
              "type": "string"
            },
            {
              "name": "application_date",
              "type": "uint256"
            },
            {
              "name": "publication_date",
              "type": "uint256"
            },
            {
              "name": "publication_kind",
              "type": "string"
            },
            {
              "name": "name",
              "type": "string"
            }
          ],
          "name": "patent",
          "type": "tuple"
        },
        {
          "name": "max_license_count",
          "type": "uint256"
        },
        {
          "name": "licenseCount",
          "type": "uint256"
        },
        {
          "name": "max_renew_count",
          "type": "uint256"
        },
        {
          "name": "renewCount",
          "type": "uint256"
        }
      ],
      "payable": false,
      "stateMutability": "view",
      "type": "function",
      "signature": "0xf422bc68"
    },
    {
      "constant": true,
      "inputs": [
        {
          "name": "",
          "type": "uint256"
        }
      ],
      "name": "verifies",
      "outputs": [
        {
          "name": "applicationId",
          "type": "uint256"
        },
        {
          "name": "verifier",
          "type": "address"
        }
      ],
      "payable": false,
      "stateMutability": "view",
      "type": "function",
      "signature": "0xfc127741"
    },
    {
      "inputs": [],
      "payable": false,
      "stateMutability": "nonpayable",
      "type": "constructor",
      "signature": "constructor"
    },
    {
      "anonymous": false,
      "inputs": [
        {
          "components": [
            {
              "name": "id",
              "type": "uint256"
            },
            {
              "name": "version",
              "type": "uint256"
            },
            {
              "name": "owner",
              "type": "address"
            },
            {
              "name": "price_assign",
              "type": "uint256"
            },
            {
              "name": "price_license",
              "type": "uint256"
            },
            {
              "name": "verifierPayment",
              "type": "uint256"
            },
            {
              "components": [
                {
                  "name": "grant_no",
                  "type": "uint256"
                },
                {
                  "name": "grant_date",
                  "type": "uint256"
                },
                {
                  "name": "application_no",
                  "type": "uint256"
                },
                {
                  "name": "applicant",
                  "type": "string"
                },
                {
                  "name": "inventor",
                  "type": "string"
                },
                {
                  "name": "publication_number",
                  "type": "string"
                },
                {
                  "name": "registerd_country",
                  "type": "string"
                },
                {
                  "name": "description",
                  "type": "string"
                },
                {
                  "name": "application_date",
                  "type": "uint256"
                },
                {
                  "name": "publication_date",
                  "type": "uint256"
                },
                {
                  "name": "publication_kind",
                  "type": "string"
                },
                {
                  "name": "name",
                  "type": "string"
                }
              ],
              "name": "patent",
              "type": "tuple"
            },
            {
              "name": "max_license_count",
              "type": "uint256"
            },
            {
              "name": "licenseCount",
              "type": "uint256"
            },
            {
              "name": "max_renew_count",
              "type": "uint256"
            },
            {
              "name": "renewCount",
              "type": "uint256"
            }
          ],
          "indexed": false,
          "name": "patentContainer",
          "type": "tuple"
        }
      ],
      "name": "PatentCreated",
      "type": "event",
      "signature": "0x5d580f47f6f4a6ba20c3e9d9c58a4670f11d29274ef59892b4835a16ef285b92"
    },
    {
      "anonymous": false,
      "inputs": [
        {
          "components": [
            {
              "name": "id",
              "type": "uint256"
            },
            {
              "name": "version",
              "type": "uint256"
            },
            {
              "name": "owner",
              "type": "address"
            },
            {
              "name": "price_assign",
              "type": "uint256"
            },
            {
              "name": "price_license",
              "type": "uint256"
            },
            {
              "name": "verifierPayment",
              "type": "uint256"
            },
            {
              "components": [
                {
                  "name": "grant_no",
                  "type": "uint256"
                },
                {
                  "name": "grant_date",
                  "type": "uint256"
                },
                {
                  "name": "application_no",
                  "type": "uint256"
                },
                {
                  "name": "applicant",
                  "type": "string"
                },
                {
                  "name": "inventor",
                  "type": "string"
                },
                {
                  "name": "publication_number",
                  "type": "string"
                },
                {
                  "name": "registerd_country",
                  "type": "string"
                },
                {
                  "name": "description",
                  "type": "string"
                },
                {
                  "name": "application_date",
                  "type": "uint256"
                },
                {
                  "name": "publication_date",
                  "type": "uint256"
                },
                {
                  "name": "publication_kind",
                  "type": "string"
                },
                {
                  "name": "name",
                  "type": "string"
                }
              ],
              "name": "patent",
              "type": "tuple"
            },
            {
              "name": "max_license_count",
              "type": "uint256"
            },
            {
              "name": "licenseCount",
              "type": "uint256"
            },
            {
              "name": "max_renew_count",
              "type": "uint256"
            },
            {
              "name": "renewCount",
              "type": "uint256"
            }
          ],
          "indexed": false,
          "name": "patentContainer",
          "type": "tuple"
        }
      ],
      "name": "ApplicationCreated",
      "type": "event",
      "signature": "0x19ca442b81c1d725ba81ba6a1811c918f0e970f75becea15f0ee8423ec9b0fe7"
    },
    {
      "anonymous": false,
      "inputs": [
        {
          "components": [
            {
              "name": "id",
              "type": "uint256"
            },
            {
              "name": "version",
              "type": "uint256"
            },
            {
              "name": "owner",
              "type": "address"
            },
            {
              "name": "price_assign",
              "type": "uint256"
            },
            {
              "name": "price_license",
              "type": "uint256"
            },
            {
              "name": "verifierPayment",
              "type": "uint256"
            },
            {
              "components": [
                {
                  "name": "grant_no",
                  "type": "uint256"
                },
                {
                  "name": "grant_date",
                  "type": "uint256"
                },
                {
                  "name": "application_no",
                  "type": "uint256"
                },
                {
                  "name": "applicant",
                  "type": "string"
                },
                {
                  "name": "inventor",
                  "type": "string"
                },
                {
                  "name": "publication_number",
                  "type": "string"
                },
                {
                  "name": "registerd_country",
                  "type": "string"
                },
                {
                  "name": "description",
                  "type": "string"
                },
                {
                  "name": "application_date",
                  "type": "uint256"
                },
                {
                  "name": "publication_date",
                  "type": "uint256"
                },
                {
                  "name": "publication_kind",
                  "type": "string"
                },
                {
                  "name": "name",
                  "type": "string"
                }
              ],
              "name": "patent",
              "type": "tuple"
            },
            {
              "name": "max_license_count",
              "type": "uint256"
            },
            {
              "name": "licenseCount",
              "type": "uint256"
            },
            {
              "name": "max_renew_count",
              "type": "uint256"
            },
            {
              "name": "renewCount",
              "type": "uint256"
            }
          ],
          "indexed": false,
          "name": "patentContainer",
          "type": "tuple"
        },
        {
          "components": [
            {
              "name": "applicationId",
              "type": "uint256"
            },
            {
              "name": "verifier",
              "type": "address"
            }
          ],
          "indexed": false,
          "name": "verify",
          "type": "tuple"
        }
      ],
      "name": "VerifyCreated",
      "type": "event",
      "signature": "0x97677d2f8c76884d579b0db2afb6215eed96d94ecae6d16998a114697aa6ea20"
    },
    {
      "anonymous": false,
      "inputs": [
        {
          "indexed": false,
          "name": "patentCount",
          "type": "uint256"
        },
        {
          "components": [
            {
              "name": "id",
              "type": "uint256"
            },
            {
              "name": "version",
              "type": "uint256"
            },
            {
              "name": "owner",
              "type": "address"
            },
            {
              "name": "price_assign",
              "type": "uint256"
            },
            {
              "name": "price_license",
              "type": "uint256"
            },
            {
              "name": "verifierPayment",
              "type": "uint256"
            },
            {
              "components": [
                {
                  "name": "grant_no",
                  "type": "uint256"
                },
                {
                  "name": "grant_date",
                  "type": "uint256"
                },
                {
                  "name": "application_no",
                  "type": "uint256"
                },
                {
                  "name": "applicant",
                  "type": "string"
                },
                {
                  "name": "inventor",
                  "type": "string"
                },
                {
                  "name": "publication_number",
                  "type": "string"
                },
                {
                  "name": "registerd_country",
                  "type": "string"
                },
                {
                  "name": "description",
                  "type": "string"
                },
                {
                  "name": "application_date",
                  "type": "uint256"
                },
                {
                  "name": "publication_date",
                  "type": "uint256"
                },
                {
                  "name": "publication_kind",
                  "type": "string"
                },
                {
                  "name": "name",
                  "type": "string"
                }
              ],
              "name": "patent",
              "type": "tuple"
            },
            {
              "name": "max_license_count",
              "type": "uint256"
            },
            {
              "name": "licenseCount",
              "type": "uint256"
            },
            {
              "name": "max_renew_count",
              "type": "uint256"
            },
            {
              "name": "renewCount",
              "type": "uint256"
            }
          ],
          "indexed": false,
          "name": "patentContainer",
          "type": "tuple"
        },
        {
          "indexed": false,
          "name": "sender",
          "type": "address"
        },
        {
          "indexed": false,
          "name": "status",
          "type": "bool"
        }
      ],
      "name": "PatentPurchased",
      "type": "event",
      "signature": "0xa5980a2018c84110bcab2c6bd70e3aa425f6702dc739d27f00c2a2bc58fe35ec"
    },
    {
      "anonymous": false,
      "inputs": [
        {
          "components": [
            {
              "name": "id",
              "type": "uint256"
            },
            {
              "name": "version",
              "type": "uint256"
            },
            {
              "name": "owner",
              "type": "address"
            },
            {
              "name": "price_assign",
              "type": "uint256"
            },
            {
              "name": "price_license",
              "type": "uint256"
            },
            {
              "name": "verifierPayment",
              "type": "uint256"
            },
            {
              "components": [
                {
                  "name": "grant_no",
                  "type": "uint256"
                },
                {
                  "name": "grant_date",
                  "type": "uint256"
                },
                {
                  "name": "application_no",
                  "type": "uint256"
                },
                {
                  "name": "applicant",
                  "type": "string"
                },
                {
                  "name": "inventor",
                  "type": "string"
                },
                {
                  "name": "publication_number",
                  "type": "string"
                },
                {
                  "name": "registerd_country",
                  "type": "string"
                },
                {
                  "name": "description",
                  "type": "string"
                },
                {
                  "name": "application_date",
                  "type": "uint256"
                },
                {
                  "name": "publication_date",
                  "type": "uint256"
                },
                {
                  "name": "publication_kind",
                  "type": "string"
                },
                {
                  "name": "name",
                  "type": "string"
                }
              ],
              "name": "patent",
              "type": "tuple"
            },
            {
              "name": "max_license_count",
              "type": "uint256"
            },
            {
              "name": "licenseCount",
              "type": "uint256"
            },
            {
              "name": "max_renew_count",
              "type": "uint256"
            },
            {
              "name": "renewCount",
              "type": "uint256"
            }
          ],
          "indexed": false,
          "name": "patentContainer",
          "type": "tuple"
        },
        {
          "components": [
            {
              "name": "licensee",
              "type": "address"
            },
            {
              "name": "license_date",
              "type": "uint256"
            },
            {
              "name": "license_exp_date",
              "type": "uint256"
            },
            {
              "name": "licensor",
              "type": "address"
            },
            {
              "name": "terms_conditions",
              "type": "string"
            },
            {
              "name": "paid_amount",
              "type": "uint256"
            },
            {
              "components": [
                {
                  "name": "id",
                  "type": "uint256"
                },
                {
                  "name": "version",
                  "type": "uint256"
                },
                {
                  "name": "owner",
                  "type": "address"
                },
                {
                  "name": "price_assign",
                  "type": "uint256"
                },
                {
                  "name": "price_license",
                  "type": "uint256"
                },
                {
                  "name": "verifierPayment",
                  "type": "uint256"
                },
                {
                  "components": [
                    {
                      "name": "grant_no",
                      "type": "uint256"
                    },
                    {
                      "name": "grant_date",
                      "type": "uint256"
                    },
                    {
                      "name": "application_no",
                      "type": "uint256"
                    },
                    {
                      "name": "applicant",
                      "type": "string"
                    },
                    {
                      "name": "inventor",
                      "type": "string"
                    },
                    {
                      "name": "publication_number",
                      "type": "string"
                    },
                    {
                      "name": "registerd_country",
                      "type": "string"
                    },
                    {
                      "name": "description",
                      "type": "string"
                    },
                    {
                      "name": "application_date",
                      "type": "uint256"
                    },
                    {
                      "name": "publication_date",
                      "type": "uint256"
                    },
                    {
                      "name": "publication_kind",
                      "type": "string"
                    },
                    {
                      "name": "name",
                      "type": "string"
                    }
                  ],
                  "name": "patent",
                  "type": "tuple"
                },
                {
                  "name": "max_license_count",
                  "type": "uint256"
                },
                {
                  "name": "licenseCount",
                  "type": "uint256"
                },
                {
                  "name": "max_renew_count",
                  "type": "uint256"
                },
                {
                  "name": "renewCount",
                  "type": "uint256"
                }
              ],
              "name": "patentContainer",
              "type": "tuple"
            }
          ],
          "indexed": false,
          "name": "license",
          "type": "tuple"
        }
      ],
      "name": "PatentLicensed",
      "type": "event",
      "signature": "0xbdfaad9f5ffb5a58f5909019fa43808456591bd4c15fe3d3626a1115b56501fd"
    },
    {
      "anonymous": false,
      "inputs": [
        {
          "components": [
            {
              "name": "renewal_date",
              "type": "uint256"
            },
            {
              "components": [
                {
                  "name": "id",
                  "type": "uint256"
                },
                {
                  "name": "version",
                  "type": "uint256"
                },
                {
                  "name": "owner",
                  "type": "address"
                },
                {
                  "name": "price_assign",
                  "type": "uint256"
                },
                {
                  "name": "price_license",
                  "type": "uint256"
                },
                {
                  "name": "verifierPayment",
                  "type": "uint256"
                },
                {
                  "components": [
                    {
                      "name": "grant_no",
                      "type": "uint256"
                    },
                    {
                      "name": "grant_date",
                      "type": "uint256"
                    },
                    {
                      "name": "application_no",
                      "type": "uint256"
                    },
                    {
                      "name": "applicant",
                      "type": "string"
                    },
                    {
                      "name": "inventor",
                      "type": "string"
                    },
                    {
                      "name": "publication_number",
                      "type": "string"
                    },
                    {
                      "name": "registerd_country",
                      "type": "string"
                    },
                    {
                      "name": "description",
                      "type": "string"
                    },
                    {
                      "name": "application_date",
                      "type": "uint256"
                    },
                    {
                      "name": "publication_date",
                      "type": "uint256"
                    },
                    {
                      "name": "publication_kind",
                      "type": "string"
                    },
                    {
                      "name": "name",
                      "type": "string"
                    }
                  ],
                  "name": "patent",
                  "type": "tuple"
                },
                {
                  "name": "max_license_count",
                  "type": "uint256"
                },
                {
                  "name": "licenseCount",
                  "type": "uint256"
                },
                {
                  "name": "max_renew_count",
                  "type": "uint256"
                },
                {
                  "name": "renewCount",
                  "type": "uint256"
                }
              ],
              "name": "patentContainer",
              "type": "tuple"
            }
          ],
          "indexed": false,
          "name": "patentRenewal",
          "type": "tuple"
        }
      ],
      "name": "PatentRenewed",
      "type": "event",
      "signature": "0xafcd95a648c4018cf5235321c16b41762e9f5a4f1fae790fcafe8ed69700e45e"
    },
    {
      "constant": false,
      "inputs": [
        {
          "components": [
            {
              "name": "id",
              "type": "uint256"
            },
            {
              "name": "version",
              "type": "uint256"
            },
            {
              "name": "owner",
              "type": "address"
            },
            {
              "name": "price_assign",
              "type": "uint256"
            },
            {
              "name": "price_license",
              "type": "uint256"
            },
            {
              "name": "verifierPayment",
              "type": "uint256"
            },
            {
              "components": [
                {
                  "name": "grant_no",
                  "type": "uint256"
                },
                {
                  "name": "grant_date",
                  "type": "uint256"
                },
                {
                  "name": "application_no",
                  "type": "uint256"
                },
                {
                  "name": "applicant",
                  "type": "string"
                },
                {
                  "name": "inventor",
                  "type": "string"
                },
                {
                  "name": "publication_number",
                  "type": "string"
                },
                {
                  "name": "registerd_country",
                  "type": "string"
                },
                {
                  "name": "description",
                  "type": "string"
                },
                {
                  "name": "application_date",
                  "type": "uint256"
                },
                {
                  "name": "publication_date",
                  "type": "uint256"
                },
                {
                  "name": "publication_kind",
                  "type": "string"
                },
                {
                  "name": "name",
                  "type": "string"
                }
              ],
              "name": "patent",
              "type": "tuple"
            },
            {
              "name": "max_license_count",
              "type": "uint256"
            },
            {
              "name": "licenseCount",
              "type": "uint256"
            },
            {
              "name": "max_renew_count",
              "type": "uint256"
            },
            {
              "name": "renewCount",
              "type": "uint256"
            }
          ],
          "name": "new_patent_container",
          "type": "tuple"
        }
      ],
      "name": "applyForPatent",
      "outputs": [],
      "payable": true,
      "stateMutability": "payable",
      "type": "function",
      "signature": "0x8fc3af05"
    },
    {
      "constant": false,
      "inputs": [
        {
          "name": "id",
          "type": "uint256"
        }
      ],
      "name": "purchasePatent",
      "outputs": [],
      "payable": true,
      "stateMutability": "payable",
      "type": "function",
      "signature": "0xc7f015ba"
    },
    {
      "constant": false,
      "inputs": [
        {
          "name": "id",
          "type": "uint256"
        },
        {
          "name": "license_date",
          "type": "uint256"
        },
        {
          "name": "license_exp_date",
          "type": "uint256"
        }
      ],
      "name": "licensePatent",
      "outputs": [],
      "payable": true,
      "stateMutability": "payable",
      "type": "function",
      "signature": "0xae2e060b"
    },
    {
      "constant": false,
      "inputs": [
        {
          "name": "id",
          "type": "uint256"
        },
        {
          "name": "renewal_date",
          "type": "uint256"
        }
      ],
      "name": "renewPatent",
      "outputs": [],
      "payable": true,
      "stateMutability": "payable",
      "type": "function",
      "signature": "0x16d4db45"
    }
  ],
  "bytecode": "0x60806040526000600155600060025560006003556000600455600060055560006006553480156200002f57600080fd5b506040805190810160405280600a81526020017f4950204d616e6167657200000000000000000000000000000000000000000000815250600090805190602001906200007d92919062000084565b5062000133565b828054600181600116156101000203166002900490600052602060002090601f016020900481019282601f10620000c757805160ff1916838001178555620000f8565b82800160010185558215620000f8579182015b82811115620000f7578251825591602001919060010190620000da565b5b5090506200010791906200010b565b5090565b6200013091905b808211156200012c57600081600090555060010162000112565b5090565b90565b615a5f80620001436000396000f3fe60806040526004361061013e576000357c0100000000000000000000000000000000000000000000000000000000900463ffffffff1680630144f9891461014357806308551a531461016e57806316d4db45146101995780632b7ac3f3146101b55780632fbccc27146101e0578063337908451461020b5780633acefa201461024e5780633d096d66146102905780634a79d50c146102ce5780635e3044cb146102f95780637150d8ae1461032457806388e687ea1461034f5780638da5cb5b1461037a5780638fc3af05146103a5578063a0941da6146103c1578063ae2e060b146103ec578063b084c84114610408578063c7f015ba14610433578063d2d31dd21461044f578063dfefadff1461047a578063e2aad4a0146104c1578063f0082920146104ec578063f422bc6814610517578063fc1277411461055e575b600080fd5b34801561014f57600080fd5b5061015861059c565b60405161016591906155ac565b60405180910390f35b34801561017a57600080fd5b506101836105c2565b60405161019091906155ac565b60405180910390f35b6101b360048036036101ae91908101906150b4565b6105e8565b005b3480156101c157600080fd5b506101ca610fa2565b6040516101d791906155ac565b60405180910390f35b3480156101ec57600080fd5b506101f5610fc8565b6040516102029190615750565b60405180910390f35b34801561021757600080fd5b50610232600480360361022d919081019061508b565b610fce565b6040516102459796959493929190615636565b60405180910390f35b34801561025a57600080fd5b506102756004803603610270919081019061508b565b61165a565b604051610287969594939291906155c7565b60405180910390f35b34801561029c57600080fd5b506102b760048036036102b2919081019061508b565b611ce0565b6040516102c5929190615794565b60405180910390f35b3480156102da57600080fd5b506102e3612276565b6040516102f091906156b3565b60405180910390f35b34801561030557600080fd5b5061030e612314565b60405161031b91906155ac565b60405180910390f35b34801561033057600080fd5b5061033961233a565b60405161034691906155ac565b60405180910390f35b34801561035b57600080fd5b50610364612360565b60405161037191906155ac565b60405180910390f35b34801561038657600080fd5b5061038f612386565b60405161039c91906155ac565b60405180910390f35b6103bf60048036036103ba919081019061504a565b6123ac565b005b3480156103cd57600080fd5b506103d66128eb565b6040516103e39190615750565b60405180910390f35b610406600480360361040191908101906150f0565b6128f1565b005b34801561041457600080fd5b5061041d613413565b60405161042a9190615750565b60405180910390f35b61044d6004803603610448919081019061508b565b613419565b005b34801561045b57600080fd5b50610464613f52565b6040516104719190615750565b60405180910390f35b34801561048657600080fd5b506104a1600480360361049c919081019061508b565b613f58565b6040516104b89b9a99989796959493929190615810565b60405180910390f35b3480156104cd57600080fd5b506104d661447e565b6040516104e39190615750565b60405180910390f35b3480156104f857600080fd5b50610501614484565b60405161050e9190615750565b60405180910390f35b34801561052357600080fd5b5061053e6004803603610539919081019061508b565b61448a565b6040516105559b9a99989796959493929190615810565b60405180910390f35b34801561056a57600080fd5b506105856004803603610580919081019061508b565b6149b0565b60405161059392919061576b565b60405180910390f35b601260009054906101000a900473ffffffffffffffffffffffffffffffffffffffff1681565b601060009054906101000a900473ffffffffffffffffffffffffffffffffffffffff1681565b6105f06149f4565b60076000848152602001908152602001600020610160604051908101604052908160008201548152602001600182015481526020016002820160009054906101000a900473ffffffffffffffffffffffffffffffffffffffff1673ffffffffffffffffffffffffffffffffffffffff1673ffffffffffffffffffffffffffffffffffffffff168152602001600382015481526020016004820154815260200160058201548152602001600682016101806040519081016040529081600082015481526020016001820154815260200160028201548152602001600382018054600181600116156101000203166002900480601f0160208091040260200160405190810160405280929190818152602001828054600181600116156101000203166002900480156107615780601f1061073657610100808354040283529160200191610761565b820191906000526020600020905b81548152906001019060200180831161074457829003601f168201915b50505050508152602001600482018054600181600116156101000203166002900480601f0160208091040260200160405190810160405280929190818152602001828054600181600116156101000203166002900480156108035780601f106107d857610100808354040283529160200191610803565b820191906000526020600020905b8154815290600101906020018083116107e657829003601f168201915b50505050508152602001600582018054600181600116156101000203166002900480601f0160208091040260200160405190810160405280929190818152602001828054600181600116156101000203166002900480156108a55780601f1061087a576101008083540402835291602001916108a5565b820191906000526020600020905b81548152906001019060200180831161088857829003601f168201915b50505050508152602001600682018054600181600116156101000203166002900480601f0160208091040260200160405190810160405280929190818152602001828054600181600116156101000203166002900480156109475780601f1061091c57610100808354040283529160200191610947565b820191906000526020600020905b81548152906001019060200180831161092a57829003601f168201915b50505050508152602001600782018054600181600116156101000203166002900480601f0160208091040260200160405190810160405280929190818152602001828054600181600116156101000203166002900480156109e95780601f106109be576101008083540402835291602001916109e9565b820191906000526020600020905b8154815290600101906020018083116109cc57829003601f168201915b505050505081526020016008820154815260200160098201548152602001600a82018054600181600116156101000203166002900480601f016020809104026020016040519081016040528092919081815260200182805460018160011615610100020316600290048015610a9f5780601f10610a7457610100808354040283529160200191610a9f565b820191906000526020600020905b815481529060010190602001808311610a8257829003601f168201915b50505050508152602001600b82018054600181600116156101000203166002900480601f016020809104026020016040519081016040528092919081815260200182805460018160011615610100020316600290048015610b415780601f10610b1657610100808354040283529160200191610b41565b820191906000526020600020905b815481529060010190602001808311610b2457829003601f168201915b50505050508152505081526020016012820154815260200160138201548152602001601482015481526020016015820154815250509050600081604001519050600182610140015101826101400181815250508160076000868152602001908152602001600020600082015181600001556020820151816001015560408201518160020160006101000a81548173ffffffffffffffffffffffffffffffffffffffff021916908373ffffffffffffffffffffffffffffffffffffffff160217905550606082015181600301556080820151816004015560a0820151816005015560c0820151816006016000820151816000015560208201518160010155604082015181600201556060820151816003019080519060200190610c64929190614a6b565b506080820151816004019080519060200190610c81929190614a6b565b5060a0820151816005019080519060200190610c9e929190614a6b565b5060c0820151816006019080519060200190610cbb929190614a6b565b5060e0820151816007019080519060200190610cd8929190614a6b565b506101008201518160080155610120820151816009015561014082015181600a019080519060200190610d0c929190614a6b565b5061016082015181600b019080519060200190610d2a929190614a6b565b50505060e08201518160120155610100820151816013015561012082015181601401556101408201518160150155905050610d63614aeb565b604080519081016040528085815260200184815250905060016006540160068190555080600c6000600654815260200190815260200160002060008201518160000155602082015181600101600082015181600001556020820151816001015560408201518160020160006101000a81548173ffffffffffffffffffffffffffffffffffffffff021916908373ffffffffffffffffffffffffffffffffffffffff160217905550606082015181600301556080820151816004015560a0820151816005015560c0820151816006016000820151816000015560208201518160010155604082015181600201556060820151816003019080519060200190610e6b929190614a6b565b506080820151816004019080519060200190610e88929190614a6b565b5060a0820151816005019080519060200190610ea5929190614a6b565b5060c0820151816006019080519060200190610ec2929190614a6b565b5060e0820151816007019080519060200190610edf929190614a6b565b506101008201518160080155610120820151816009015561014082015181600a019080519060200190610f13929190614a6b565b5061016082015181600b019080519060200190610f31929190614a6b565b50505060e0820151816012015561010082015181601301556101208201518160140155610140820151816015015550509050507fafcd95a648c4018cf5235321c16b41762e9f5a4f1fae790fcafe8ed69700e45e81604051610f93919061572e565b60405180910390a15050505050565b600e60009054906101000a900473ffffffffffffffffffffffffffffffffffffffff1681565b60045481565b600a6020528060005260406000206000915090508060000160009054906101000a900473ffffffffffffffffffffffffffffffffffffffff16908060010154908060020154908060030160009054906101000a900473ffffffffffffffffffffffffffffffffffffffff1690806004018054600181600116156101000203166002900480601f0160208091040260200160405190810160405280929190818152602001828054600181600116156101000203166002900480156110d25780601f106110a7576101008083540402835291602001916110d2565b820191906000526020600020905b8154815290600101906020018083116110b557829003601f168201915b50505050509080600501549080600601610160604051908101604052908160008201548152602001600182015481526020016002820160009054906101000a900473ffffffffffffffffffffffffffffffffffffffff1673ffffffffffffffffffffffffffffffffffffffff1673ffffffffffffffffffffffffffffffffffffffff168152602001600382015481526020016004820154815260200160058201548152602001600682016101806040519081016040529081600082015481526020016001820154815260200160028201548152602001600382018054600181600116156101000203166002900480601f0160208091040260200160405190810160405280929190818152602001828054600181600116156101000203166002900480156112405780601f1061121557610100808354040283529160200191611240565b820191906000526020600020905b81548152906001019060200180831161122357829003601f168201915b50505050508152602001600482018054600181600116156101000203166002900480601f0160208091040260200160405190810160405280929190818152602001828054600181600116156101000203166002900480156112e25780601f106112b7576101008083540402835291602001916112e2565b820191906000526020600020905b8154815290600101906020018083116112c557829003601f168201915b50505050508152602001600582018054600181600116156101000203166002900480601f0160208091040260200160405190810160405280929190818152602001828054600181600116156101000203166002900480156113845780601f1061135957610100808354040283529160200191611384565b820191906000526020600020905b81548152906001019060200180831161136757829003601f168201915b50505050508152602001600682018054600181600116156101000203166002900480601f0160208091040260200160405190810160405280929190818152602001828054600181600116156101000203166002900480156114265780601f106113fb57610100808354040283529160200191611426565b820191906000526020600020905b81548152906001019060200180831161140957829003601f168201915b50505050508152602001600782018054600181600116156101000203166002900480601f0160208091040260200160405190810160405280929190818152602001828054600181600116156101000203166002900480156114c85780601f1061149d576101008083540402835291602001916114c8565b820191906000526020600020905b8154815290600101906020018083116114ab57829003601f168201915b505050505081526020016008820154815260200160098201548152602001600a82018054600181600116156101000203166002900480601f01602080910402602001604051908101604052809291908181526020018280546001816001161561010002031660029004801561157e5780601f106115535761010080835404028352916020019161157e565b820191906000526020600020905b81548152906001019060200180831161156157829003601f168201915b50505050508152602001600b82018054600181600116156101000203166002900480601f0160208091040260200160405190810160405280929190818152602001828054600181600116156101000203166002900480156116205780601f106115f557610100808354040283529160200191611620565b820191906000526020600020905b81548152906001019060200180831161160357829003601f168201915b5050505050815250508152602001601282015481526020016013820154815260200160148201548152602001601582015481525050905087565b600b6020528060005260406000206000915090508060000160009054906101000a900473ffffffffffffffffffffffffffffffffffffffff16908060010160009054906101000a900473ffffffffffffffffffffffffffffffffffffffff1690806002015490806003018054600181600116156101000203166002900480601f0160208091040260200160405190810160405280929190818152602001828054600181600116156101000203166002900480156117585780601f1061172d57610100808354040283529160200191611758565b820191906000526020600020905b81548152906001019060200180831161173b57829003601f168201915b50505050509080600401549080600501610160604051908101604052908160008201548152602001600182015481526020016002820160009054906101000a900473ffffffffffffffffffffffffffffffffffffffff1673ffffffffffffffffffffffffffffffffffffffff1673ffffffffffffffffffffffffffffffffffffffff168152602001600382015481526020016004820154815260200160058201548152602001600682016101806040519081016040529081600082015481526020016001820154815260200160028201548152602001600382018054600181600116156101000203166002900480601f0160208091040260200160405190810160405280929190818152602001828054600181600116156101000203166002900480156118c65780601f1061189b576101008083540402835291602001916118c6565b820191906000526020600020905b8154815290600101906020018083116118a957829003601f168201915b50505050508152602001600482018054600181600116156101000203166002900480601f0160208091040260200160405190810160405280929190818152602001828054600181600116156101000203166002900480156119685780601f1061193d57610100808354040283529160200191611968565b820191906000526020600020905b81548152906001019060200180831161194b57829003601f168201915b50505050508152602001600582018054600181600116156101000203166002900480601f016020809104026020016040519081016040528092919081815260200182805460018160011615610100020316600290048015611a0a5780601f106119df57610100808354040283529160200191611a0a565b820191906000526020600020905b8154815290600101906020018083116119ed57829003601f168201915b50505050508152602001600682018054600181600116156101000203166002900480601f016020809104026020016040519081016040528092919081815260200182805460018160011615610100020316600290048015611aac5780601f10611a8157610100808354040283529160200191611aac565b820191906000526020600020905b815481529060010190602001808311611a8f57829003601f168201915b50505050508152602001600782018054600181600116156101000203166002900480601f016020809104026020016040519081016040528092919081815260200182805460018160011615610100020316600290048015611b4e5780601f10611b2357610100808354040283529160200191611b4e565b820191906000526020600020905b815481529060010190602001808311611b3157829003601f168201915b505050505081526020016008820154815260200160098201548152602001600a82018054600181600116156101000203166002900480601f016020809104026020016040519081016040528092919081815260200182805460018160011615610100020316600290048015611c045780601f10611bd957610100808354040283529160200191611c04565b820191906000526020600020905b815481529060010190602001808311611be757829003601f168201915b50505050508152602001600b82018054600181600116156101000203166002900480601f016020809104026020016040519081016040528092919081815260200182805460018160011615610100020316600290048015611ca65780601f10611c7b57610100808354040283529160200191611ca6565b820191906000526020600020905b815481529060010190602001808311611c8957829003601f168201915b5050505050815250508152602001601282015481526020016013820154815260200160148201548152602001601582015481525050905086565b600c60205280600052604060002060009150905080600001549080600101610160604051908101604052908160008201548152602001600182015481526020016002820160009054906101000a900473ffffffffffffffffffffffffffffffffffffffff1673ffffffffffffffffffffffffffffffffffffffff1673ffffffffffffffffffffffffffffffffffffffff168152602001600382015481526020016004820154815260200160058201548152602001600682016101806040519081016040529081600082015481526020016001820154815260200160028201548152602001600382018054600181600116156101000203166002900480601f016020809104026020016040519081016040528092919081815260200182805460018160011615610100020316600290048015611e5c5780601f10611e3157610100808354040283529160200191611e5c565b820191906000526020600020905b815481529060010190602001808311611e3f57829003601f168201915b50505050508152602001600482018054600181600116156101000203166002900480601f016020809104026020016040519081016040528092919081815260200182805460018160011615610100020316600290048015611efe5780601f10611ed357610100808354040283529160200191611efe565b820191906000526020600020905b815481529060010190602001808311611ee157829003601f168201915b50505050508152602001600582018054600181600116156101000203166002900480601f016020809104026020016040519081016040528092919081815260200182805460018160011615610100020316600290048015611fa05780601f10611f7557610100808354040283529160200191611fa0565b820191906000526020600020905b815481529060010190602001808311611f8357829003601f168201915b50505050508152602001600682018054600181600116156101000203166002900480601f0160208091040260200160405190810160405280929190818152602001828054600181600116156101000203166002900480156120425780601f1061201757610100808354040283529160200191612042565b820191906000526020600020905b81548152906001019060200180831161202557829003601f168201915b50505050508152602001600782018054600181600116156101000203166002900480601f0160208091040260200160405190810160405280929190818152602001828054600181600116156101000203166002900480156120e45780601f106120b9576101008083540402835291602001916120e4565b820191906000526020600020905b8154815290600101906020018083116120c757829003601f168201915b505050505081526020016008820154815260200160098201548152602001600a82018054600181600116156101000203166002900480601f01602080910402602001604051908101604052809291908181526020018280546001816001161561010002031660029004801561219a5780601f1061216f5761010080835404028352916020019161219a565b820191906000526020600020905b81548152906001019060200180831161217d57829003601f168201915b50505050508152602001600b82018054600181600116156101000203166002900480601f01602080910402602001604051908101604052809291908181526020018280546001816001161561010002031660029004801561223c5780601f106122115761010080835404028352916020019161223c565b820191906000526020600020905b81548152906001019060200180831161221f57829003601f168201915b5050505050815250508152602001601282015481526020016013820154815260200160148201548152602001601582015481525050905082565b60008054600181600116156101000203166002900480601f01602080910402602001604051908101604052809291908181526020018280546001816001161561010002031660029004801561230c5780601f106122e15761010080835404028352916020019161230c565b820191906000526020600020905b8154815290600101906020018083116122ef57829003601f168201915b505050505081565b601360009054906101000a900473ffffffffffffffffffffffffffffffffffffffff1681565b601160009054906101000a900473ffffffffffffffffffffffffffffffffffffffff1681565b600d60009054906101000a900473ffffffffffffffffffffffffffffffffffffffff1681565b600f60009054906101000a900473ffffffffffffffffffffffffffffffffffffffff1681565b60016000815480929190600101919050555060015481600001818152505080600760006001548152602001908152602001600020600082015181600001556020820151816001015560408201518160020160006101000a81548173ffffffffffffffffffffffffffffffffffffffff021916908373ffffffffffffffffffffffffffffffffffffffff160217905550606082015181600301556080820151816004015560a0820151816005015560c082015181600601600082015181600001556020820151816001015560408201518160020155606082015181600301908051906020019061249c929190614a6b565b5060808201518160040190805190602001906124b9929190614a6b565b5060a08201518160050190805190602001906124d6929190614a6b565b5060c08201518160060190805190602001906124f3929190614a6b565b5060e0820151816007019080519060200190612510929190614a6b565b506101008201518160080155610120820151816009015561014082015181600a019080519060200190612544929190614a6b565b5061016082015181600b019080519060200190612562929190614a6b565b50505060e0820151816012015561010082015181601301556101208201518160140155610140820151816015015590505061259b614b0d565b60c060405190810160405280836040015173ffffffffffffffffffffffffffffffffffffffff168152602001836040015173ffffffffffffffffffffffffffffffffffffffff16815260200160008152602001602060405190810160405280600081525081526020016000815260200183815250905060016005540160058190555080600b6000600554815260200190815260200160002060008201518160000160006101000a81548173ffffffffffffffffffffffffffffffffffffffff021916908373ffffffffffffffffffffffffffffffffffffffff16021790555060208201518160010160006101000a81548173ffffffffffffffffffffffffffffffffffffffff021916908373ffffffffffffffffffffffffffffffffffffffff1602179055506040820151816002015560608201518160030190805190602001906126e7929190614a6b565b506080820151816004015560a082015181600501600082015181600001556020820151816001015560408201518160020160006101000a81548173ffffffffffffffffffffffffffffffffffffffff021916908373ffffffffffffffffffffffffffffffffffffffff160217905550606082015181600301556080820151816004015560a0820151816005015560c08201518160060160008201518160000155602082015181600101556040820151816002015560608201518160030190805190602001906127b7929190614a6b565b5060808201518160040190805190602001906127d4929190614a6b565b5060a08201518160050190805190602001906127f1929190614a6b565b5060c082015181600601908051906020019061280e929190614a6b565b5060e082015181600701908051906020019061282b929190614a6b565b506101008201518160080155610120820151816009015561014082015181600a01908051906020019061285f929190614a6b565b5061016082015181600b01908051906020019061287d929190614a6b565b50505060e0820151816012015561010082015181601301556101208201518160140155610140820151816015015550509050507f19ca442b81c1d725ba81ba6a1811c918f0e970f75becea15f0ee8423ec9b0fe7826040516128df91906156d5565b60405180910390a15050565b60055481565b6128f96149f4565b60076000858152602001908152602001600020610160604051908101604052908160008201548152602001600182015481526020016002820160009054906101000a900473ffffffffffffffffffffffffffffffffffffffff1673ffffffffffffffffffffffffffffffffffffffff1673ffffffffffffffffffffffffffffffffffffffff168152602001600382015481526020016004820154815260200160058201548152602001600682016101806040519081016040529081600082015481526020016001820154815260200160028201548152602001600382018054600181600116156101000203166002900480601f016020809104026020016040519081016040528092919081815260200182805460018160011615610100020316600290048015612a6a5780601f10612a3f57610100808354040283529160200191612a6a565b820191906000526020600020905b815481529060010190602001808311612a4d57829003601f168201915b50505050508152602001600482018054600181600116156101000203166002900480601f016020809104026020016040519081016040528092919081815260200182805460018160011615610100020316600290048015612b0c5780601f10612ae157610100808354040283529160200191612b0c565b820191906000526020600020905b815481529060010190602001808311612aef57829003601f168201915b50505050508152602001600582018054600181600116156101000203166002900480601f016020809104026020016040519081016040528092919081815260200182805460018160011615610100020316600290048015612bae5780601f10612b8357610100808354040283529160200191612bae565b820191906000526020600020905b815481529060010190602001808311612b9157829003601f168201915b50505050508152602001600682018054600181600116156101000203166002900480601f016020809104026020016040519081016040528092919081815260200182805460018160011615610100020316600290048015612c505780601f10612c2557610100808354040283529160200191612c50565b820191906000526020600020905b815481529060010190602001808311612c3357829003601f168201915b50505050508152602001600782018054600181600116156101000203166002900480601f016020809104026020016040519081016040528092919081815260200182805460018160011615610100020316600290048015612cf25780601f10612cc757610100808354040283529160200191612cf2565b820191906000526020600020905b815481529060010190602001808311612cd557829003601f168201915b505050505081526020016008820154815260200160098201548152602001600a82018054600181600116156101000203166002900480601f016020809104026020016040519081016040528092919081815260200182805460018160011615610100020316600290048015612da85780601f10612d7d57610100808354040283529160200191612da8565b820191906000526020600020905b815481529060010190602001808311612d8b57829003601f168201915b50505050508152602001600b82018054600181600116156101000203166002900480601f016020809104026020016040519081016040528092919081815260200182805460018160011615610100020316600290048015612e4a5780601f10612e1f57610100808354040283529160200191612e4a565b820191906000526020600020905b815481529060010190602001808311612e2d57829003601f168201915b50505050508152505081526020016012820154815260200160138201548152602001601482015481526020016015820154815250509050600081604001519050612e92614b77565b60e0604051908101604052803373ffffffffffffffffffffffffffffffffffffffff168152602001868152602001858152602001846040015173ffffffffffffffffffffffffffffffffffffffff1681526020016020604051908101604052806000815250815260200134815260200184815250905060016004540160048190555080600a6000600454815260200190815260200160002060008201518160000160006101000a81548173ffffffffffffffffffffffffffffffffffffffff021916908373ffffffffffffffffffffffffffffffffffffffff160217905550602082015181600101556040820151816002015560608201518160030160006101000a81548173ffffffffffffffffffffffffffffffffffffffff021916908373ffffffffffffffffffffffffffffffffffffffff1602179055506080820151816004019080519060200190612fe8929190614a6b565b5060a0820151816005015560c082015181600601600082015181600001556020820151816001015560408201518160020160006101000a81548173ffffffffffffffffffffffffffffffffffffffff021916908373ffffffffffffffffffffffffffffffffffffffff160217905550606082015181600301556080820151816004015560a0820151816005015560c08201518160060160008201518160000155602082015181600101556040820151816002015560608201518160030190805190602001906130b8929190614a6b565b5060808201518160040190805190602001906130d5929190614a6b565b5060a08201518160050190805190602001906130f2929190614a6b565b5060c082015181600601908051906020019061310f929190614a6b565b5060e082015181600701908051906020019061312c929190614a6b565b506101008201518160080155610120820151816009015561014082015181600a019080519060200190613160929190614a6b565b5061016082015181600b01908051906020019061317e929190614a6b565b50505060e082015181601201556101008201518160130155610120820151816014015561014082015181601501555050905050600183610100015101836101000181815250508260076000888152602001908152602001600020600082015181600001556020820151816001015560408201518160020160006101000a81548173ffffffffffffffffffffffffffffffffffffffff021916908373ffffffffffffffffffffffffffffffffffffffff160217905550606082015181600301556080820151816004015560a0820151816005015560c0820151816006016000820151816000015560208201518160010155604082015181600201556060820151816003019080519060200190613294929190614a6b565b5060808201518160040190805190602001906132b1929190614a6b565b5060a08201518160050190805190602001906132ce929190614a6b565b5060c08201518160060190805190602001906132eb929190614a6b565b5060e0820151816007019080519060200190613308929190614a6b565b506101008201518160080155610120820151816009015561014082015181600a01908051906020019061333c929190614a6b565b5061016082015181600b01908051906020019061335a929190614a6b565b50505060e082015181601201556101008201518160130155610120820151816014015561014082015181601501559050508173ffffffffffffffffffffffffffffffffffffffff166108fc349081150290604051600060405180830381858888f193505050501580156133d1573d6000803e3d6000fd5b507fbdfaad9f5ffb5a58f5909019fa43808456591bd4c15fe3d3626a1115b56501fd83826040516134039291906156f7565b60405180910390a1505050505050565b60015481565b6134216149f4565b60076000838152602001908152602001600020610160604051908101604052908160008201548152602001600182015481526020016002820160009054906101000a900473ffffffffffffffffffffffffffffffffffffffff1673ffffffffffffffffffffffffffffffffffffffff1673ffffffffffffffffffffffffffffffffffffffff168152602001600382015481526020016004820154815260200160058201548152602001600682016101806040519081016040529081600082015481526020016001820154815260200160028201548152602001600382018054600181600116156101000203166002900480601f0160208091040260200160405190810160405280929190818152602001828054600181600116156101000203166002900480156135925780601f1061356757610100808354040283529160200191613592565b820191906000526020600020905b81548152906001019060200180831161357557829003601f168201915b50505050508152602001600482018054600181600116156101000203166002900480601f0160208091040260200160405190810160405280929190818152602001828054600181600116156101000203166002900480156136345780601f1061360957610100808354040283529160200191613634565b820191906000526020600020905b81548152906001019060200180831161361757829003601f168201915b50505050508152602001600582018054600181600116156101000203166002900480601f0160208091040260200160405190810160405280929190818152602001828054600181600116156101000203166002900480156136d65780601f106136ab576101008083540402835291602001916136d6565b820191906000526020600020905b8154815290600101906020018083116136b957829003601f168201915b50505050508152602001600682018054600181600116156101000203166002900480601f0160208091040260200160405190810160405280929190818152602001828054600181600116156101000203166002900480156137785780601f1061374d57610100808354040283529160200191613778565b820191906000526020600020905b81548152906001019060200180831161375b57829003601f168201915b50505050508152602001600782018054600181600116156101000203166002900480601f01602080910402602001604051908101604052809291908181526020018280546001816001161561010002031660029004801561381a5780601f106137ef5761010080835404028352916020019161381a565b820191906000526020600020905b8154815290600101906020018083116137fd57829003601f168201915b505050505081526020016008820154815260200160098201548152602001600a82018054600181600116156101000203166002900480601f0160208091040260200160405190810160405280929190818152602001828054600181600116156101000203166002900480156138d05780601f106138a5576101008083540402835291602001916138d0565b820191906000526020600020905b8154815290600101906020018083116138b357829003601f168201915b50505050508152602001600b82018054600181600116156101000203166002900480601f0160208091040260200160405190810160405280929190818152602001828054600181600116156101000203166002900480156139725780601f1061394757610100808354040283529160200191613972565b820191906000526020600020905b81548152906001019060200180831161395557829003601f168201915b5050505050815250508152602001601282015481526020016013820154815260200160148201548152602001601582015481525050905060008160400151905033826040019073ffffffffffffffffffffffffffffffffffffffff16908173ffffffffffffffffffffffffffffffffffffffff16815250508160076000858152602001908152602001600020600082015181600001556020820151816001015560408201518160020160006101000a81548173ffffffffffffffffffffffffffffffffffffffff021916908373ffffffffffffffffffffffffffffffffffffffff160217905550606082015181600301556080820151816004015560a0820151816005015560c0820151816006016000820151816000015560208201518160010155604082015181600201556060820151816003019080519060200190613aba929190614a6b565b506080820151816004019080519060200190613ad7929190614a6b565b5060a0820151816005019080519060200190613af4929190614a6b565b5060c0820151816006019080519060200190613b11929190614a6b565b5060e0820151816007019080519060200190613b2e929190614a6b565b506101008201518160080155610120820151816009015561014082015181600a019080519060200190613b62929190614a6b565b5061016082015181600b019080519060200190613b80929190614a6b565b50505060e08201518160120155610100820151816013015561012082015181601401556101408201518160150155905050613bb9614b0d565b60c0604051908101604052808373ffffffffffffffffffffffffffffffffffffffff1681526020013373ffffffffffffffffffffffffffffffffffffffff168152602001600081526020016020604051908101604052806000815250815260200134815260200184815250905060016005540160058190555080600b6000600554815260200190815260200160002060008201518160000160006101000a81548173ffffffffffffffffffffffffffffffffffffffff021916908373ffffffffffffffffffffffffffffffffffffffff16021790555060208201518160010160006101000a81548173ffffffffffffffffffffffffffffffffffffffff021916908373ffffffffffffffffffffffffffffffffffffffff160217905550604082015181600201556060820151816003019080519060200190613cfc929190614a6b565b506080820151816004015560a082015181600501600082015181600001556020820151816001015560408201518160020160006101000a81548173ffffffffffffffffffffffffffffffffffffffff021916908373ffffffffffffffffffffffffffffffffffffffff160217905550606082015181600301556080820151816004015560a0820151816005015560c0820151816006016000820151816000015560208201518160010155604082015181600201556060820151816003019080519060200190613dcc929190614a6b565b506080820151816004019080519060200190613de9929190614a6b565b5060a0820151816005019080519060200190613e06929190614a6b565b5060c0820151816006019080519060200190613e23929190614a6b565b5060e0820151816007019080519060200190613e40929190614a6b565b506101008201518160080155610120820151816009015561014082015181600a019080519060200190613e74929190614a6b565b5061016082015181600b019080519060200190613e92929190614a6b565b50505060e0820151816012015561010082015181601301556101208201518160140155610140820151816015015550509050508173ffffffffffffffffffffffffffffffffffffffff166108fc349081150290604051600060405180830381858888f19350505050158015613f0b573d6000803e3d6000fd5b507fa5980a2018c84110bcab2c6bd70e3aa425f6702dc739d27f00c2a2bc58fe35ec60015484336001604051613f4494939291906157c4565b60405180910390a150505050565b60065481565b60086020528060005260406000206000915090508060000154908060010154908060020160009054906101000a900473ffffffffffffffffffffffffffffffffffffffff1690806003015490806004015490806005015490806006016101806040519081016040529081600082015481526020016001820154815260200160028201548152602001600382018054600181600116156101000203166002900480601f0160208091040260200160405190810160405280929190818152602001828054600181600116156101000203166002900480156140785780601f1061404d57610100808354040283529160200191614078565b820191906000526020600020905b81548152906001019060200180831161405b57829003601f168201915b50505050508152602001600482018054600181600116156101000203166002900480601f01602080910402602001604051908101604052809291908181526020018280546001816001161561010002031660029004801561411a5780601f106140ef5761010080835404028352916020019161411a565b820191906000526020600020905b8154815290600101906020018083116140fd57829003601f168201915b50505050508152602001600582018054600181600116156101000203166002900480601f0160208091040260200160405190810160405280929190818152602001828054600181600116156101000203166002900480156141bc5780601f10614191576101008083540402835291602001916141bc565b820191906000526020600020905b81548152906001019060200180831161419f57829003601f168201915b50505050508152602001600682018054600181600116156101000203166002900480601f01602080910402602001604051908101604052809291908181526020018280546001816001161561010002031660029004801561425e5780601f106142335761010080835404028352916020019161425e565b820191906000526020600020905b81548152906001019060200180831161424157829003601f168201915b50505050508152602001600782018054600181600116156101000203166002900480601f0160208091040260200160405190810160405280929190818152602001828054600181600116156101000203166002900480156143005780601f106142d557610100808354040283529160200191614300565b820191906000526020600020905b8154815290600101906020018083116142e357829003601f168201915b505050505081526020016008820154815260200160098201548152602001600a82018054600181600116156101000203166002900480601f0160208091040260200160405190810160405280929190818152602001828054600181600116156101000203166002900480156143b65780601f1061438b576101008083540402835291602001916143b6565b820191906000526020600020905b81548152906001019060200180831161439957829003601f168201915b50505050508152602001600b82018054600181600116156101000203166002900480601f0160208091040260200160405190810160405280929190818152602001828054600181600116156101000203166002900480156144585780601f1061442d57610100808354040283529160200191614458565b820191906000526020600020905b81548152906001019060200180831161443b57829003601f168201915b50505050508152505090806012015490806013015490806014015490806015015490508b565b60025481565b60035481565b60076020528060005260406000206000915090508060000154908060010154908060020160009054906101000a900473ffffffffffffffffffffffffffffffffffffffff1690806003015490806004015490806005015490806006016101806040519081016040529081600082015481526020016001820154815260200160028201548152602001600382018054600181600116156101000203166002900480601f0160208091040260200160405190810160405280929190818152602001828054600181600116156101000203166002900480156145aa5780601f1061457f576101008083540402835291602001916145aa565b820191906000526020600020905b81548152906001019060200180831161458d57829003601f168201915b50505050508152602001600482018054600181600116156101000203166002900480601f01602080910402602001604051908101604052809291908181526020018280546001816001161561010002031660029004801561464c5780601f106146215761010080835404028352916020019161464c565b820191906000526020600020905b81548152906001019060200180831161462f57829003601f168201915b50505050508152602001600582018054600181600116156101000203166002900480601f0160208091040260200160405190810160405280929190818152602001828054600181600116156101000203166002900480156146ee5780601f106146c3576101008083540402835291602001916146ee565b820191906000526020600020905b8154815290600101906020018083116146d157829003601f168201915b50505050508152602001600682018054600181600116156101000203166002900480601f0160208091040260200160405190810160405280929190818152602001828054600181600116156101000203166002900480156147905780601f1061476557610100808354040283529160200191614790565b820191906000526020600020905b81548152906001019060200180831161477357829003601f168201915b50505050508152602001600782018054600181600116156101000203166002900480601f0160208091040260200160405190810160405280929190818152602001828054600181600116156101000203166002900480156148325780601f1061480757610100808354040283529160200191614832565b820191906000526020600020905b81548152906001019060200180831161481557829003601f168201915b505050505081526020016008820154815260200160098201548152602001600a82018054600181600116156101000203166002900480601f0160208091040260200160405190810160405280929190818152602001828054600181600116156101000203166002900480156148e85780601f106148bd576101008083540402835291602001916148e8565b820191906000526020600020905b8154815290600101906020018083116148cb57829003601f168201915b50505050508152602001600b82018054600181600116156101000203166002900480601f01602080910402602001604051908101604052809291908181526020018280546001816001161561010002031660029004801561498a5780601f1061495f5761010080835404028352916020019161498a565b820191906000526020600020905b81548152906001019060200180831161496d57829003601f168201915b50505050508152505090806012015490806013015490806014015490806015015490508b565b60096020528060005260406000206000915090508060000154908060010160009054906101000a900473ffffffffffffffffffffffffffffffffffffffff16905082565b6102c0604051908101604052806000815260200160008152602001600073ffffffffffffffffffffffffffffffffffffffff168152602001600081526020016000815260200160008152602001614a49614be8565b8152602001600081526020016000815260200160008152602001600081525090565b828054600181600116156101000203166002900490600052602060002090601f016020900481019282601f10614aac57805160ff1916838001178555614ada565b82800160010185558215614ada579182015b82811115614ad9578251825591602001919060010190614abe565b5b509050614ae79190614c4a565b5090565b6102e06040519081016040528060008152602001614b07614c6f565b81525090565b61036060405190810160405280600073ffffffffffffffffffffffffffffffffffffffff168152602001600073ffffffffffffffffffffffffffffffffffffffff168152602001600081526020016060815260200160008152602001614b71614c6f565b81525090565b61038060405190810160405280600073ffffffffffffffffffffffffffffffffffffffff1681526020016000815260200160008152602001600073ffffffffffffffffffffffffffffffffffffffff1681526020016060815260200160008152602001614be2614c6f565b81525090565b610180604051908101604052806000815260200160008152602001600081526020016060815260200160608152602001606081526020016060815260200160608152602001600081526020016000815260200160608152602001606081525090565b614c6c91905b80821115614c68576000816000905550600101614c50565b5090565b90565b6102c0604051908101604052806000815260200160008152602001600073ffffffffffffffffffffffffffffffffffffffff168152602001600081526020016000815260200160008152602001614cc4614be8565b8152602001600081526020016000815260200160008152602001600081525090565b6000614cf28235615980565b905092915050565b600082601f8301121515614d0d57600080fd5b8135614d20614d1b826158ef565b6158c2565b91508082526020830160208301858383011115614d3c57600080fd5b614d478382846159d2565b50505092915050565b60006101608284031215614d6357600080fd5b614d6e6101606158c2565b90506000614d7e84828501615036565b6000830152506020614d9284828501615036565b6020830152506040614da684828501614ce6565b6040830152506060614dba84828501615036565b6060830152506080614dce84828501615036565b60808301525060a0614de284828501615036565b60a08301525060c082013567ffffffffffffffff811115614e0257600080fd5b614e0e84828501614e70565b60c08301525060e0614e2284828501615036565b60e083015250610100614e3784828501615036565b61010083015250610120614e4d84828501615036565b61012083015250610140614e6384828501615036565b6101408301525092915050565b60006101808284031215614e8357600080fd5b614e8e6101806158c2565b90506000614e9e84828501615036565b6000830152506020614eb284828501615036565b6020830152506040614ec684828501615036565b604083015250606082013567ffffffffffffffff811115614ee657600080fd5b614ef284828501614cfa565b606083015250608082013567ffffffffffffffff811115614f1257600080fd5b614f1e84828501614cfa565b60808301525060a082013567ffffffffffffffff811115614f3e57600080fd5b614f4a84828501614cfa565b60a08301525060c082013567ffffffffffffffff811115614f6a57600080fd5b614f7684828501614cfa565b60c08301525060e082013567ffffffffffffffff811115614f9657600080fd5b614fa284828501614cfa565b60e083015250610100614fb784828501615036565b61010083015250610120614fcd84828501615036565b6101208301525061014082013567ffffffffffffffff811115614fef57600080fd5b614ffb84828501614cfa565b6101408301525061016082013567ffffffffffffffff81111561501d57600080fd5b61502984828501614cfa565b6101608301525092915050565b60006150428235615992565b905092915050565b60006020828403121561505c57600080fd5b600082013567ffffffffffffffff81111561507657600080fd5b61508284828501614d50565b91505092915050565b60006020828403121561509d57600080fd5b60006150ab84828501615036565b91505092915050565b600080604083850312156150c757600080fd5b60006150d585828601615036565b92505060206150e685828601615036565b9150509250929050565b60008060006060848603121561510557600080fd5b600061511386828701615036565b935050602061512486828701615036565b925050604061513586828701615036565b9150509250925092565b6151488161599c565b82525050565b61515781615938565b82525050565b61516681615926565b82525050565b6151758161594a565b82525050565b60006151868261591b565b80845261519a8160208601602086016159e1565b6151a381615a14565b602085010191505092915050565b600060e0830160008301516151c9600086018261515d565b5060208301516151dc602086018261559d565b5060408301516151ef604086018261559d565b506060830151615202606086018261514e565b506080830151848203608086015261521a828261517b565b91505060a083015161522f60a086018261559d565b5060c083015184820360c08601526152478282615343565b9150508091505092915050565b60006101608301600083015161526d600086018261559d565b506020830151615280602086018261559d565b506040830151615293604086018261514e565b5060608301516152a6606086018261559d565b5060808301516152b9608086018261559d565b5060a08301516152cc60a086018261559d565b5060c083015184820360c08601526152e4828261546f565b91505060e08301516152f960e086018261559d565b5061010083015161530e61010086018261559d565b5061012083015161532361012086018261559d565b5061014083015161533861014086018261559d565b508091505092915050565b60006101608301600083015161535c600086018261559d565b50602083015161536f602086018261559d565b506040830151615382604086018261514e565b506060830151615395606086018261559d565b5060808301516153a8608086018261559d565b5060a08301516153bb60a086018261559d565b5060c083015184820360c08601526153d3828261546f565b91505060e08301516153e860e086018261559d565b506101008301516153fd61010086018261559d565b5061012083015161541261012086018261559d565b5061014083015161542761014086018261559d565b508091505092915050565b600060408301600083015161544a600086018261559d565b50602083015184820360208601526154628282615343565b9150508091505092915050565b600061018083016000830151615488600086018261559d565b50602083015161549b602086018261559d565b5060408301516154ae604086018261559d565b50606083015184820360608601526154c6828261517b565b915050608083015184820360808601526154e0828261517b565b91505060a083015184820360a08601526154fa828261517b565b91505060c083015184820360c0860152615514828261517b565b91505060e083015184820360e086015261552e828261517b565b91505061010083015161554561010086018261559d565b5061012083015161555a61012086018261559d565b50610140830151848203610140860152615574828261517b565b915050610160830151848203610160860152615590828261517b565b9150508091505092915050565b6155a681615976565b82525050565b60006020820190506155c1600083018461515d565b92915050565b600060c0820190506155dc600083018961515d565b6155e9602083018861515d565b6155f6604083018761559d565b8181036060830152615608818661517b565b9050615617608083018561559d565b81810360a08301526156298184615343565b9050979650505050505050565b600060e08201905061564b600083018a61515d565b615658602083018961559d565b615665604083018861559d565b615672606083018761514e565b8181036080830152615684818661517b565b905061569360a083018561559d565b81810360c08301526156a58184615343565b905098975050505050505050565b600060208201905081810360008301526156cd818461517b565b905092915050565b600060208201905081810360008301526156ef8184615254565b905092915050565b600060408201905081810360008301526157118185615254565b9050818103602083015261572581846151b1565b90509392505050565b600060208201905081810360008301526157488184615432565b905092915050565b6000602082019050615765600083018461559d565b92915050565b6000604082019050615780600083018561559d565b61578d602083018461514e565b9392505050565b60006040820190506157a9600083018561559d565b81810360208301526157bb8184615343565b90509392505050565b60006080820190506157d9600083018761559d565b81810360208301526157eb8186615254565b90506157fa604083018561513f565b615807606083018461516c565b95945050505050565b600061016082019050615826600083018e61559d565b615833602083018d61559d565b615840604083018c61514e565b61584d606083018b61559d565b61585a608083018a61559d565b61586760a083018961559d565b81810360c0830152615879818861546f565b905061588860e083018761559d565b61589661010083018661559d565b6158a461012083018561559d565b6158b261014083018461559d565b9c9b505050505050505050505050565b6000604051905081810181811067ffffffffffffffff821117156158e557600080fd5b8060405250919050565b600067ffffffffffffffff82111561590657600080fd5b601f19601f8301169050602081019050919050565b600081519050919050565b600061593182615956565b9050919050565b600061594382615956565b9050919050565b60008115159050919050565b600073ffffffffffffffffffffffffffffffffffffffff82169050919050565b6000819050919050565b600061598b82615956565b9050919050565b6000819050919050565b60006159a7826159ae565b9050919050565b60006159b9826159c0565b9050919050565b60006159cb82615956565b9050919050565b82818337600083830152505050565b60005b838110156159ff5780820151818401526020810190506159e4565b83811115615a0e576000848401525b50505050565b6000601f19601f830116905091905056fea265627a7a723058200bbfac13d0447f2699cf71a8447ecd9ac371443aa57ecb1e4f172c91aecbe0756c6578706572696d656e74616cf50037",
  "source": "pragma solidity ^0.5.0;\r\npragma experimental ABIEncoderV2;\r\n\r\ncontract IPManager {\r\n    //System Information\r\n    string public title;\r\n    uint public patentCount = 0;\r\n    uint public applicationCount =0;\r\n    uint public verifyCount = 0;\r\n    uint public licenseCount = 0;\r\n    uint public ownershipCount = 0;\r\n    uint public renewCount = 0;\r\n\r\n    //Blockchain Databases\r\n    mapping(uint => PatentContainer) public patents;//For patents\r\n    mapping(uint => PatentContainer) public applications;//For applications\r\n    mapping(uint => Verify) public verifies;//For Verfications\r\n    mapping(uint => License) public licenses;//For License\r\n    mapping(uint => Ownership) public ownerships; //For record privious ownwerships\r\n    mapping(uint => PatentRenewal) public renewals; //For Keep Track Of Renewals\r\n\r\n    //Members of the system\r\n    address public applicant;\r\n    address public verifier;\r\n    address public owner;\r\n\r\n    address public seller;\r\n    address public buyer;\r\n    \r\n    address public licensor;\r\n    address public licensee;\r\n\r\n    //Constructor of the contract\r\n    constructor() public {\r\n        title = \"IP Manager\";\r\n    }\r\n\r\n    //Data For Patent Applications\r\n    struct Patent {\r\n        uint grant_no;\r\n        uint256 grant_date;\r\n        uint application_no;\r\n        string applicant;\r\n        string inventor;\r\n        string publication_number;\r\n        string registerd_country;\r\n        string description;\r\n        uint256 application_date;\r\n        uint256 publication_date;\r\n        string publication_kind;\r\n        string name;\r\n    }\r\n\r\n    struct PatentRenewal {\r\n        uint256 renewal_date;\r\n        PatentContainer patentContainer;\r\n    }\r\n\r\n    struct PatentContainer {\r\n        //This used becuse Struct can have only 16 local variables\r\n        //So patent data isolate from variables need to run program\r\n        uint id;\r\n        uint version;\r\n        address payable owner;\r\n        uint price_assign;\r\n        uint price_license;\r\n        uint verifierPayment;\r\n        Patent patent;\r\n        uint max_license_count;\r\n        uint licenseCount;\r\n        uint max_renew_count;\r\n        uint renewCount;\r\n    }\r\n\r\n    struct Verify {\r\n        uint applicationId;\r\n        address payable verifier;\r\n    }\r\n\r\n    struct License {\r\n        address licensee;\r\n        uint256 license_date;\r\n        uint256 license_exp_date;\r\n        address payable licensor;\r\n        string terms_conditions;\r\n        uint paid_amount;\r\n        PatentContainer patentContainer;\r\n    }\r\n\r\n    struct Ownership {\r\n        address assigner;\r\n        address assignee;\r\n        uint ownership_start_date;\r\n        string terms_conditions;\r\n        uint paid_amount;\r\n        PatentContainer patentContainer;\r\n    }\r\n\r\n    //List of Events\r\n    event PatentCreated(PatentContainer patentContainer);\r\n    event ApplicationCreated(PatentContainer patentContainer);\r\n    event VerifyCreated(PatentContainer patentContainer, Verify verify);\r\n    event PatentPurchased(uint patentCount, PatentContainer patentContainer, address sender, bool status);\r\n    event PatentLicensed(PatentContainer patentContainer, License license);\r\n    event PatentRenewed(PatentRenewal patentRenewal);\r\n\r\n    //Appling for Patent\r\n    function applyForPatent(PatentContainer memory new_patent_container) public payable {\r\n        //Validate Inputs\r\n        // Required\r\n        /*require(bytes(new_patent_container.patent.name).length > 0);\r\n        require(bytes(new_patent_container.patent.description).length > 0);\r\n        require(bytes(new_patent_container.patent.publication_kind).length > 0);\r\n        require(bytes(new_patent_container.patent.registerd_country).length > 0);\r\n        require(bytes(new_patent_container.patent.publication_number).length > 0);\r\n        require(bytes(new_patent_container.patent.inventor).length > 0);\r\n        require(bytes(new_patent_container.patent.applicant).length > 0);*/\r\n\r\n        //Create New application\r\n        patentCount ++;\r\n        new_patent_container.id = patentCount;\r\n        patents[patentCount] = new_patent_container;\r\n\r\n        //Set ownership data\r\n        Ownership memory ownership = Ownership(new_patent_container.owner,new_patent_container.owner, 0, '', 0, new_patent_container);\r\n        ownershipCount = ownershipCount+1;\r\n        ownerships[ownershipCount] = ownership;\r\n\r\n        // Trigger an event\r\n        emit ApplicationCreated(new_patent_container);\r\n    }\r\n\r\n    //Verify Application\r\n    /*function verifyPatent(PatentContainer memory patent_container, Verify memory verify) public payable {\r\n        verify.verifier.transfer(patent_container.verifierPayment);\r\n\r\n        emit VerifyCreated(patent_container, verify);\r\n    }*/\r\n\r\n    \r\n\r\n    //event PatentPurchased();\r\n\r\n    /*function createPatent(PatentContainer memory new_patent_container) public {\r\n        // Required\r\n        require(bytes(new_patent_container.patent.name).length > 0);\r\n        require(bytes(new_patent_container.patent.description).length > 0);\r\n        require(bytes(new_patent_container.patent.publication_kind).length > 0);\r\n        require(bytes(new_patent_container.patent.registerd_country).length > 0);\r\n        require(bytes(new_patent_container.patent.publication_number).length > 0);\r\n        require(bytes(new_patent_container.patent.inventor).length > 0);\r\n        require(bytes(new_patent_container.patent.applicant).length > 0);\r\n\r\n        //require(bytes(_grant_no).length > 0);\r\n\r\n        //Check Simileritis\r\n        //Not Implemented\r\n\r\n        //if similer found check owner is same then its a version\r\n        //Not Implemented\r\n\r\n        //if not not allowed to register\r\n        // Increment patent count\r\n        patentCount ++;\r\n\r\n        // Create the patent\r\n        new_patent_container.id = patentCount;\r\n        patents[patentCount] = new_patent_container;\r\n\r\n        // Trigger an event\r\n        emit PatentCreated(new_patent_container);\r\n    }*/\r\n\r\n    //function \r\n\r\n\r\n    /*function findSimilerPatents(PatentContainer memory new_patent_container) private {\r\n        \r\n    }*/\r\n\r\n    function purchasePatent(uint id) public payable {\r\n        // Fetch the patent\r\n        PatentContainer memory patent = patents[id];\r\n        // Fetch the owner\r\n        address payable seller = patent.owner;\r\n        // Make sure the patent has a valid id\r\n        /*require(patent.id > 0 && patent.id <= patentCount);\r\n        // Require that there is enough Ether in the transaction\r\n        //require(msg.value >= patent.price_assign);\r\n        // Require that Patent is availabe to sell\r\n        require(patent.price_assign > 0);\r\n        // Require that the patent has not been purchased already\r\n        //require(!patent.purchased);\r\n        // Require that the buyer is not the seller\r\n        require(seller != msg.sender);*/\r\n        // Transfer ownership to the buyer\r\n        patent.owner = msg.sender;\r\n\r\n        // Mark as purchased\r\n        //patent.purchased = true;\r\n        \r\n        // Update the patent\r\n        patents[id] = patent;\r\n        //Set ownership data\r\n        Ownership memory ownership = Ownership(seller,msg.sender, 0, '', msg.value, patent);\r\n        ownershipCount = ownershipCount+1;\r\n        ownerships[ownershipCount] = ownership;\r\n        // Pay the seller by sending them Ether\r\n        address(seller).transfer(msg.value);\r\n        // Trigger an event\r\n        emit PatentPurchased(patentCount, patent, msg.sender, true);\r\n    }\r\n\r\n\r\n    function licensePatent(uint id, uint256 license_date, uint256 license_exp_date) public payable {\r\n        // Fetch the patent\r\n        PatentContainer memory patent = patents[id];\r\n        // Fetch the owner\r\n        address payable licenser = patent.owner;\r\n        // Make sure the patent has a valid id\r\n        /*require(patent.id > 0 && patent.id <= patentCount);\r\n        // Require that there is enough Ether in the transaction\r\n        require(msg.value >= patent.price_license);\r\n        // Require that Patent is availabe to license\r\n        require(patent.price_license > 0);\r\n        // Require that the licenser is not the licensee\r\n        require(licenser != msg.sender);\r\n        //Require not excceding max licnesee count\r\n        require(patent.max_license_count< patent.licenseCount);*/\r\n        //Create License Record\r\n        License memory license = License(msg.sender, license_date, license_exp_date, patent.owner, '', msg.value, patent);\r\n        //Update licenses map count\r\n        licenseCount = licenseCount + 1;\r\n        //Add License Record to Map\r\n        licenses[licenseCount] = license;\r\n        // Update the patent\r\n        patent.licenseCount = patent.licenseCount + 1;\r\n        patents[id] = patent;\r\n        // Pay the seller by sending them Ether\r\n        address(licenser).transfer(msg.value);\r\n        // Trigger an event\r\n        emit PatentLicensed(patent, license);\r\n    }\r\n\r\n    function renewPatent(uint id, uint256 renewal_date) public payable {\r\n        // Fetch the patent\r\n        PatentContainer memory patent = patents[id];\r\n        // Fetch the owner\r\n        address owner = patent.owner;\r\n        // Make sure the patent has a valid id\r\n        /*require(patent.price_license > 0);\r\n        // Require that the renewer is the owner\r\n        require(owner != msg.sender);\r\n        //Require not excceding max renew count\r\n        require(patent.max_renew_count< patent.renewCount);*/\r\n        // Update the patent\r\n        patent.renewCount = patent.renewCount + 1;\r\n        patents[id] = patent;\r\n        //Create Renew Record\r\n        PatentRenewal memory patentRenewal = PatentRenewal(renewal_date, patent);\r\n        //Update renewal map count\r\n        renewCount = renewCount + 1;\r\n        //Add Renew Record to Map\r\n        renewals[renewCount] = patentRenewal;        \r\n        // Trigger an event\r\n        emit PatentRenewed(patentRenewal);\r\n    }\r\n}\r\n\r\n",
  "sourcePath": "D:/Blockchain_v2/marketplace/src/contracts/IPManager.sol",
  "compiler": {
    "name": "solc",
    "version": "0.5.0+commit.1d4f565a.Emscripten.clang"
  },
  "schemaVersion": "3.0.2",
  "updatedAt": "2024-05-28T09:44:28.544Z",
  "devdoc": {
    "methods": {}
  },
  "userdoc": {
    "methods": {}
  }
}