{
  "contractName": "IPManager",
  "abi": [
    {
      "constant": true,
      "inputs": [],
      "name": "licensor",
      "outputs": [
        {
          "name": "",
          "type": "address"
        }
      ],
      "payable": false,
      "stateMutability": "view",
      "type": "function",
      "signature": "0x0144f989"
    },
    {
      "constant": true,
      "inputs": [],
      "name": "seller",
      "outputs": [
        {
          "name": "",
          "type": "address"
        }
      ],
      "payable": false,
      "stateMutability": "view",
      "type": "function",
      "signature": "0x08551a53"
    },
    {
      "constant": true,
      "inputs": [],
      "name": "verifier",
      "outputs": [
        {
          "name": "",
          "type": "address"
        }
      ],
      "payable": false,
      "stateMutability": "view",
      "type": "function",
      "signature": "0x2b7ac3f3"
    },
    {
      "constant": true,
      "inputs": [],
      "name": "licenseCount",
      "outputs": [
        {
          "name": "",
          "type": "uint256"
        }
      ],
      "payable": false,
      "stateMutability": "view",
      "type": "function",
      "signature": "0x2fbccc27"
    },
    {
      "constant": true,
      "inputs": [
        {
          "name": "",
          "type": "uint256"
        }
      ],
      "name": "licenses",
      "outputs": [
        {
          "name": "licensee",
          "type": "address"
        },
        {
          "name": "license_date",
          "type": "uint256"
        },
        {
          "name": "license_exp_date",
          "type": "uint256"
        },
        {
          "name": "licensor",
          "type": "address"
        },
        {
          "name": "terms_conditions",
          "type": "string"
        },
        {
          "name": "paid_amount",
          "type": "uint256"
        },
        {
          "components": [
            {
              "name": "id",
              "type": "uint256"
            },
            {
              "name": "version",
              "type": "uint256"
            },
            {
              "name": "owner",
              "type": "address"
            },
            {
              "name": "price_assign",
              "type": "uint256"
            },
            {
              "name": "price_license",
              "type": "uint256"
            },
            {
              "name": "verifierPayment",
              "type": "uint256"
            },
            {
              "components": [
                {
                  "name": "grant_no",
                  "type": "uint256"
                },
                {
                  "name": "grant_date",
                  "type": "uint256"
                },
                {
                  "name": "application_no",
                  "type": "uint256"
                },
                {
                  "name": "applicant",
                  "type": "string"
                },
                {
                  "name": "inventor",
                  "type": "string"
                },
                {
                  "name": "publication_number",
                  "type": "string"
                },
                {
                  "name": "registerd_country",
                  "type": "string"
                },
                {
                  "name": "description",
                  "type": "string"
                },
                {
                  "name": "application_date",
                  "type": "uint256"
                },
                {
                  "name": "publication_date",
                  "type": "uint256"
                },
                {
                  "name": "publication_kind",
                  "type": "string"
                },
                {
                  "name": "name",
                  "type": "string"
                }
              ],
              "name": "patent",
              "type": "tuple"
            },
            {
              "name": "max_license_count",
              "type": "uint256"
            },
            {
              "name": "licenseCount",
              "type": "uint256"
            }
          ],
          "name": "patentContainer",
          "type": "tuple"
        }
      ],
      "payable": false,
      "stateMutability": "view",
      "type": "function",
      "signature": "0x33790845"
    },
    {
      "constant": true,
      "inputs": [
        {
          "name": "",
          "type": "uint256"
        }
      ],
      "name": "ownerships",
      "outputs": [
        {
          "name": "assigner",
          "type": "address"
        },
        {
          "name": "assignee",
          "type": "address"
        },
        {
          "name": "ownership_start_date",
          "type": "uint256"
        },
        {
          "name": "terms_conditions",
          "type": "string"
        },
        {
          "name": "paid_amount",
          "type": "uint256"
        },
        {
          "components": [
            {
              "name": "id",
              "type": "uint256"
            },
            {
              "name": "version",
              "type": "uint256"
            },
            {
              "name": "owner",
              "type": "address"
            },
            {
              "name": "price_assign",
              "type": "uint256"
            },
            {
              "name": "price_license",
              "type": "uint256"
            },
            {
              "name": "verifierPayment",
              "type": "uint256"
            },
            {
              "components": [
                {
                  "name": "grant_no",
                  "type": "uint256"
                },
                {
                  "name": "grant_date",
                  "type": "uint256"
                },
                {
                  "name": "application_no",
                  "type": "uint256"
                },
                {
                  "name": "applicant",
                  "type": "string"
                },
                {
                  "name": "inventor",
                  "type": "string"
                },
                {
                  "name": "publication_number",
                  "type": "string"
                },
                {
                  "name": "registerd_country",
                  "type": "string"
                },
                {
                  "name": "description",
                  "type": "string"
                },
                {
                  "name": "application_date",
                  "type": "uint256"
                },
                {
                  "name": "publication_date",
                  "type": "uint256"
                },
                {
                  "name": "publication_kind",
                  "type": "string"
                },
                {
                  "name": "name",
                  "type": "string"
                }
              ],
              "name": "patent",
              "type": "tuple"
            },
            {
              "name": "max_license_count",
              "type": "uint256"
            },
            {
              "name": "licenseCount",
              "type": "uint256"
            }
          ],
          "name": "patentContainer",
          "type": "tuple"
        }
      ],
      "payable": false,
      "stateMutability": "view",
      "type": "function",
      "signature": "0x3acefa20"
    },
    {
      "constant": true,
      "inputs": [],
      "name": "title",
      "outputs": [
        {
          "name": "",
          "type": "string"
        }
      ],
      "payable": false,
      "stateMutability": "view",
      "type": "function",
      "signature": "0x4a79d50c"
    },
    {
      "constant": true,
      "inputs": [],
      "name": "licensee",
      "outputs": [
        {
          "name": "",
          "type": "address"
        }
      ],
      "payable": false,
      "stateMutability": "view",
      "type": "function",
      "signature": "0x5e3044cb"
    },
    {
      "constant": true,
      "inputs": [],
      "name": "buyer",
      "outputs": [
        {
          "name": "",
          "type": "address"
        }
      ],
      "payable": false,
      "stateMutability": "view",
      "type": "function",
      "signature": "0x7150d8ae"
    },
    {
      "constant": true,
      "inputs": [],
      "name": "applicant",
      "outputs": [
        {
          "name": "",
          "type": "address"
        }
      ],
      "payable": false,
      "stateMutability": "view",
      "type": "function",
      "signature": "0x88e687ea"
    },
    {
      "constant": true,
      "inputs": [],
      "name": "owner",
      "outputs": [
        {
          "name": "",
          "type": "address"
        }
      ],
      "payable": false,
      "stateMutability": "view",
      "type": "function",
      "signature": "0x8da5cb5b"
    },
    {
      "constant": true,
      "inputs": [],
      "name": "ownershipCount",
      "outputs": [
        {
          "name": "",
          "type": "uint256"
        }
      ],
      "payable": false,
      "stateMutability": "view",
      "type": "function",
      "signature": "0xa0941da6"
    },
    {
      "constant": true,
      "inputs": [],
      "name": "patentCount",
      "outputs": [
        {
          "name": "",
          "type": "uint256"
        }
      ],
      "payable": false,
      "stateMutability": "view",
      "type": "function",
      "signature": "0xb084c841"
    },
    {
      "constant": true,
      "inputs": [
        {
          "name": "",
          "type": "uint256"
        }
      ],
      "name": "applications",
      "outputs": [
        {
          "name": "id",
          "type": "uint256"
        },
        {
          "name": "version",
          "type": "uint256"
        },
        {
          "name": "owner",
          "type": "address"
        },
        {
          "name": "price_assign",
          "type": "uint256"
        },
        {
          "name": "price_license",
          "type": "uint256"
        },
        {
          "name": "verifierPayment",
          "type": "uint256"
        },
        {
          "components": [
            {
              "name": "grant_no",
              "type": "uint256"
            },
            {
              "name": "grant_date",
              "type": "uint256"
            },
            {
              "name": "application_no",
              "type": "uint256"
            },
            {
              "name": "applicant",
              "type": "string"
            },
            {
              "name": "inventor",
              "type": "string"
            },
            {
              "name": "publication_number",
              "type": "string"
            },
            {
              "name": "registerd_country",
              "type": "string"
            },
            {
              "name": "description",
              "type": "string"
            },
            {
              "name": "application_date",
              "type": "uint256"
            },
            {
              "name": "publication_date",
              "type": "uint256"
            },
            {
              "name": "publication_kind",
              "type": "string"
            },
            {
              "name": "name",
              "type": "string"
            }
          ],
          "name": "patent",
          "type": "tuple"
        },
        {
          "name": "max_license_count",
          "type": "uint256"
        },
        {
          "name": "licenseCount",
          "type": "uint256"
        }
      ],
      "payable": false,
      "stateMutability": "view",
      "type": "function",
      "signature": "0xdfefadff"
    },
    {
      "constant": true,
      "inputs": [],
      "name": "applicationCount",
      "outputs": [
        {
          "name": "",
          "type": "uint256"
        }
      ],
      "payable": false,
      "stateMutability": "view",
      "type": "function",
      "signature": "0xe2aad4a0"
    },
    {
      "constant": true,
      "inputs": [],
      "name": "verifyCount",
      "outputs": [
        {
          "name": "",
          "type": "uint256"
        }
      ],
      "payable": false,
      "stateMutability": "view",
      "type": "function",
      "signature": "0xf0082920"
    },
    {
      "constant": true,
      "inputs": [
        {
          "name": "",
          "type": "uint256"
        }
      ],
      "name": "patents",
      "outputs": [
        {
          "name": "id",
          "type": "uint256"
        },
        {
          "name": "version",
          "type": "uint256"
        },
        {
          "name": "owner",
          "type": "address"
        },
        {
          "name": "price_assign",
          "type": "uint256"
        },
        {
          "name": "price_license",
          "type": "uint256"
        },
        {
          "name": "verifierPayment",
          "type": "uint256"
        },
        {
          "components": [
            {
              "name": "grant_no",
              "type": "uint256"
            },
            {
              "name": "grant_date",
              "type": "uint256"
            },
            {
              "name": "application_no",
              "type": "uint256"
            },
            {
              "name": "applicant",
              "type": "string"
            },
            {
              "name": "inventor",
              "type": "string"
            },
            {
              "name": "publication_number",
              "type": "string"
            },
            {
              "name": "registerd_country",
              "type": "string"
            },
            {
              "name": "description",
              "type": "string"
            },
            {
              "name": "application_date",
              "type": "uint256"
            },
            {
              "name": "publication_date",
              "type": "uint256"
            },
            {
              "name": "publication_kind",
              "type": "string"
            },
            {
              "name": "name",
              "type": "string"
            }
          ],
          "name": "patent",
          "type": "tuple"
        },
        {
          "name": "max_license_count",
          "type": "uint256"
        },
        {
          "name": "licenseCount",
          "type": "uint256"
        }
      ],
      "payable": false,
      "stateMutability": "view",
      "type": "function",
      "signature": "0xf422bc68"
    },
    {
      "constant": true,
      "inputs": [
        {
          "name": "",
          "type": "uint256"
        }
      ],
      "name": "verifies",
      "outputs": [
        {
          "name": "applicationId",
          "type": "uint256"
        },
        {
          "name": "verifier",
          "type": "address"
        }
      ],
      "payable": false,
      "stateMutability": "view",
      "type": "function",
      "signature": "0xfc127741"
    },
    {
      "inputs": [],
      "payable": false,
      "stateMutability": "nonpayable",
      "type": "constructor",
      "signature": "constructor"
    },
    {
      "anonymous": false,
      "inputs": [
        {
          "components": [
            {
              "name": "id",
              "type": "uint256"
            },
            {
              "name": "version",
              "type": "uint256"
            },
            {
              "name": "owner",
              "type": "address"
            },
            {
              "name": "price_assign",
              "type": "uint256"
            },
            {
              "name": "price_license",
              "type": "uint256"
            },
            {
              "name": "verifierPayment",
              "type": "uint256"
            },
            {
              "components": [
                {
                  "name": "grant_no",
                  "type": "uint256"
                },
                {
                  "name": "grant_date",
                  "type": "uint256"
                },
                {
                  "name": "application_no",
                  "type": "uint256"
                },
                {
                  "name": "applicant",
                  "type": "string"
                },
                {
                  "name": "inventor",
                  "type": "string"
                },
                {
                  "name": "publication_number",
                  "type": "string"
                },
                {
                  "name": "registerd_country",
                  "type": "string"
                },
                {
                  "name": "description",
                  "type": "string"
                },
                {
                  "name": "application_date",
                  "type": "uint256"
                },
                {
                  "name": "publication_date",
                  "type": "uint256"
                },
                {
                  "name": "publication_kind",
                  "type": "string"
                },
                {
                  "name": "name",
                  "type": "string"
                }
              ],
              "name": "patent",
              "type": "tuple"
            },
            {
              "name": "max_license_count",
              "type": "uint256"
            },
            {
              "name": "licenseCount",
              "type": "uint256"
            }
          ],
          "indexed": false,
          "name": "patentContainer",
          "type": "tuple"
        }
      ],
      "name": "PatentCreated",
      "type": "event",
      "signature": "0x6665a6f4e52121d7548acdc4e88ff928ceb0816a8a8a5c5064a96113b623f1cc"
    },
    {
      "anonymous": false,
      "inputs": [
        {
          "components": [
            {
              "name": "id",
              "type": "uint256"
            },
            {
              "name": "version",
              "type": "uint256"
            },
            {
              "name": "owner",
              "type": "address"
            },
            {
              "name": "price_assign",
              "type": "uint256"
            },
            {
              "name": "price_license",
              "type": "uint256"
            },
            {
              "name": "verifierPayment",
              "type": "uint256"
            },
            {
              "components": [
                {
                  "name": "grant_no",
                  "type": "uint256"
                },
                {
                  "name": "grant_date",
                  "type": "uint256"
                },
                {
                  "name": "application_no",
                  "type": "uint256"
                },
                {
                  "name": "applicant",
                  "type": "string"
                },
                {
                  "name": "inventor",
                  "type": "string"
                },
                {
                  "name": "publication_number",
                  "type": "string"
                },
                {
                  "name": "registerd_country",
                  "type": "string"
                },
                {
                  "name": "description",
                  "type": "string"
                },
                {
                  "name": "application_date",
                  "type": "uint256"
                },
                {
                  "name": "publication_date",
                  "type": "uint256"
                },
                {
                  "name": "publication_kind",
                  "type": "string"
                },
                {
                  "name": "name",
                  "type": "string"
                }
              ],
              "name": "patent",
              "type": "tuple"
            },
            {
              "name": "max_license_count",
              "type": "uint256"
            },
            {
              "name": "licenseCount",
              "type": "uint256"
            }
          ],
          "indexed": false,
          "name": "patentContainer",
          "type": "tuple"
        }
      ],
      "name": "ApplicationCreated",
      "type": "event",
      "signature": "0x185bd9aeca97c1f1ecdd5bb7db73a08f924704bb2383c37438cae14777f0b280"
    },
    {
      "anonymous": false,
      "inputs": [
        {
          "components": [
            {
              "name": "id",
              "type": "uint256"
            },
            {
              "name": "version",
              "type": "uint256"
            },
            {
              "name": "owner",
              "type": "address"
            },
            {
              "name": "price_assign",
              "type": "uint256"
            },
            {
              "name": "price_license",
              "type": "uint256"
            },
            {
              "name": "verifierPayment",
              "type": "uint256"
            },
            {
              "components": [
                {
                  "name": "grant_no",
                  "type": "uint256"
                },
                {
                  "name": "grant_date",
                  "type": "uint256"
                },
                {
                  "name": "application_no",
                  "type": "uint256"
                },
                {
                  "name": "applicant",
                  "type": "string"
                },
                {
                  "name": "inventor",
                  "type": "string"
                },
                {
                  "name": "publication_number",
                  "type": "string"
                },
                {
                  "name": "registerd_country",
                  "type": "string"
                },
                {
                  "name": "description",
                  "type": "string"
                },
                {
                  "name": "application_date",
                  "type": "uint256"
                },
                {
                  "name": "publication_date",
                  "type": "uint256"
                },
                {
                  "name": "publication_kind",
                  "type": "string"
                },
                {
                  "name": "name",
                  "type": "string"
                }
              ],
              "name": "patent",
              "type": "tuple"
            },
            {
              "name": "max_license_count",
              "type": "uint256"
            },
            {
              "name": "licenseCount",
              "type": "uint256"
            }
          ],
          "indexed": false,
          "name": "patentContainer",
          "type": "tuple"
        },
        {
          "components": [
            {
              "name": "applicationId",
              "type": "uint256"
            },
            {
              "name": "verifier",
              "type": "address"
            }
          ],
          "indexed": false,
          "name": "verify",
          "type": "tuple"
        }
      ],
      "name": "VerifyCreated",
      "type": "event",
      "signature": "0x353eae6422f420ff374775220fe4dfc62f72f973e4e5a51c9f7a953648683dbe"
    },
    {
      "anonymous": false,
      "inputs": [
        {
          "indexed": false,
          "name": "patentCount",
          "type": "uint256"
        },
        {
          "components": [
            {
              "name": "id",
              "type": "uint256"
            },
            {
              "name": "version",
              "type": "uint256"
            },
            {
              "name": "owner",
              "type": "address"
            },
            {
              "name": "price_assign",
              "type": "uint256"
            },
            {
              "name": "price_license",
              "type": "uint256"
            },
            {
              "name": "verifierPayment",
              "type": "uint256"
            },
            {
              "components": [
                {
                  "name": "grant_no",
                  "type": "uint256"
                },
                {
                  "name": "grant_date",
                  "type": "uint256"
                },
                {
                  "name": "application_no",
                  "type": "uint256"
                },
                {
                  "name": "applicant",
                  "type": "string"
                },
                {
                  "name": "inventor",
                  "type": "string"
                },
                {
                  "name": "publication_number",
                  "type": "string"
                },
                {
                  "name": "registerd_country",
                  "type": "string"
                },
                {
                  "name": "description",
                  "type": "string"
                },
                {
                  "name": "application_date",
                  "type": "uint256"
                },
                {
                  "name": "publication_date",
                  "type": "uint256"
                },
                {
                  "name": "publication_kind",
                  "type": "string"
                },
                {
                  "name": "name",
                  "type": "string"
                }
              ],
              "name": "patent",
              "type": "tuple"
            },
            {
              "name": "max_license_count",
              "type": "uint256"
            },
            {
              "name": "licenseCount",
              "type": "uint256"
            }
          ],
          "indexed": false,
          "name": "patentContainer",
          "type": "tuple"
        },
        {
          "indexed": false,
          "name": "sender",
          "type": "address"
        },
        {
          "indexed": false,
          "name": "status",
          "type": "bool"
        }
      ],
      "name": "PatentPurchased",
      "type": "event",
      "signature": "0xf0c46a354093e90fc73af03337886e431fa16b9655aae8252793693ea22578d0"
    },
    {
      "anonymous": false,
      "inputs": [
        {
          "components": [
            {
              "name": "id",
              "type": "uint256"
            },
            {
              "name": "version",
              "type": "uint256"
            },
            {
              "name": "owner",
              "type": "address"
            },
            {
              "name": "price_assign",
              "type": "uint256"
            },
            {
              "name": "price_license",
              "type": "uint256"
            },
            {
              "name": "verifierPayment",
              "type": "uint256"
            },
            {
              "components": [
                {
                  "name": "grant_no",
                  "type": "uint256"
                },
                {
                  "name": "grant_date",
                  "type": "uint256"
                },
                {
                  "name": "application_no",
                  "type": "uint256"
                },
                {
                  "name": "applicant",
                  "type": "string"
                },
                {
                  "name": "inventor",
                  "type": "string"
                },
                {
                  "name": "publication_number",
                  "type": "string"
                },
                {
                  "name": "registerd_country",
                  "type": "string"
                },
                {
                  "name": "description",
                  "type": "string"
                },
                {
                  "name": "application_date",
                  "type": "uint256"
                },
                {
                  "name": "publication_date",
                  "type": "uint256"
                },
                {
                  "name": "publication_kind",
                  "type": "string"
                },
                {
                  "name": "name",
                  "type": "string"
                }
              ],
              "name": "patent",
              "type": "tuple"
            },
            {
              "name": "max_license_count",
              "type": "uint256"
            },
            {
              "name": "licenseCount",
              "type": "uint256"
            }
          ],
          "indexed": false,
          "name": "patentContainer",
          "type": "tuple"
        },
        {
          "components": [
            {
              "name": "licensee",
              "type": "address"
            },
            {
              "name": "license_date",
              "type": "uint256"
            },
            {
              "name": "license_exp_date",
              "type": "uint256"
            },
            {
              "name": "licensor",
              "type": "address"
            },
            {
              "name": "terms_conditions",
              "type": "string"
            },
            {
              "name": "paid_amount",
              "type": "uint256"
            },
            {
              "components": [
                {
                  "name": "id",
                  "type": "uint256"
                },
                {
                  "name": "version",
                  "type": "uint256"
                },
                {
                  "name": "owner",
                  "type": "address"
                },
                {
                  "name": "price_assign",
                  "type": "uint256"
                },
                {
                  "name": "price_license",
                  "type": "uint256"
                },
                {
                  "name": "verifierPayment",
                  "type": "uint256"
                },
                {
                  "components": [
                    {
                      "name": "grant_no",
                      "type": "uint256"
                    },
                    {
                      "name": "grant_date",
                      "type": "uint256"
                    },
                    {
                      "name": "application_no",
                      "type": "uint256"
                    },
                    {
                      "name": "applicant",
                      "type": "string"
                    },
                    {
                      "name": "inventor",
                      "type": "string"
                    },
                    {
                      "name": "publication_number",
                      "type": "string"
                    },
                    {
                      "name": "registerd_country",
                      "type": "string"
                    },
                    {
                      "name": "description",
                      "type": "string"
                    },
                    {
                      "name": "application_date",
                      "type": "uint256"
                    },
                    {
                      "name": "publication_date",
                      "type": "uint256"
                    },
                    {
                      "name": "publication_kind",
                      "type": "string"
                    },
                    {
                      "name": "name",
                      "type": "string"
                    }
                  ],
                  "name": "patent",
                  "type": "tuple"
                },
                {
                  "name": "max_license_count",
                  "type": "uint256"
                },
                {
                  "name": "licenseCount",
                  "type": "uint256"
                }
              ],
              "name": "patentContainer",
              "type": "tuple"
            }
          ],
          "indexed": false,
          "name": "license",
          "type": "tuple"
        }
      ],
      "name": "PatentLicensed",
      "type": "event",
      "signature": "0x4532740c68121fa82e0bf670df70dd083babc23b912a06ac17432931208d6bc8"
    },
    {
      "constant": false,
      "inputs": [
        {
          "components": [
            {
              "name": "id",
              "type": "uint256"
            },
            {
              "name": "version",
              "type": "uint256"
            },
            {
              "name": "owner",
              "type": "address"
            },
            {
              "name": "price_assign",
              "type": "uint256"
            },
            {
              "name": "price_license",
              "type": "uint256"
            },
            {
              "name": "verifierPayment",
              "type": "uint256"
            },
            {
              "components": [
                {
                  "name": "grant_no",
                  "type": "uint256"
                },
                {
                  "name": "grant_date",
                  "type": "uint256"
                },
                {
                  "name": "application_no",
                  "type": "uint256"
                },
                {
                  "name": "applicant",
                  "type": "string"
                },
                {
                  "name": "inventor",
                  "type": "string"
                },
                {
                  "name": "publication_number",
                  "type": "string"
                },
                {
                  "name": "registerd_country",
                  "type": "string"
                },
                {
                  "name": "description",
                  "type": "string"
                },
                {
                  "name": "application_date",
                  "type": "uint256"
                },
                {
                  "name": "publication_date",
                  "type": "uint256"
                },
                {
                  "name": "publication_kind",
                  "type": "string"
                },
                {
                  "name": "name",
                  "type": "string"
                }
              ],
              "name": "patent",
              "type": "tuple"
            },
            {
              "name": "max_license_count",
              "type": "uint256"
            },
            {
              "name": "licenseCount",
              "type": "uint256"
            }
          ],
          "name": "new_patent_container",
          "type": "tuple"
        }
      ],
      "name": "applyForPatent",
      "outputs": [],
      "payable": true,
      "stateMutability": "payable",
      "type": "function",
      "signature": "0xfa9b7d33"
    },
    {
      "constant": false,
      "inputs": [
        {
          "name": "id",
          "type": "uint256"
        }
      ],
      "name": "purchasePatent",
      "outputs": [],
      "payable": true,
      "stateMutability": "payable",
      "type": "function",
      "signature": "0xc7f015ba"
    },
    {
      "constant": false,
      "inputs": [
        {
          "name": "id",
          "type": "uint256"
        },
        {
          "name": "license_date",
          "type": "uint256"
        },
        {
          "name": "license_exp_date",
          "type": "uint256"
        }
      ],
      "name": "licensePatent",
      "outputs": [],
      "payable": true,
      "stateMutability": "payable",
      "type": "function",
      "signature": "0xae2e060b"
    }
  ],
  "bytecode": "0x6080604052600060015560006002556000600355600060045560006005553480156200002a57600080fd5b506040805190810160405280600a81526020017f4950204d616e616765720000000000000000000000000000000000000000000081525060009080519060200190620000789291906200007f565b506200012e565b828054600181600116156101000203166002900490600052602060002090601f016020900481019282601f10620000c257805160ff1916838001178555620000f3565b82800160010185558215620000f3579182015b82811115620000f2578251825591602001919060010190620000d5565b5b50905062000102919062000106565b5090565b6200012b91905b80821115620001275760008160009055506001016200010d565b5090565b90565b6147cc806200013e6000396000f3fe60806040526004361061011d576000357c0100000000000000000000000000000000000000000000000000000000900463ffffffff1680630144f9891461012257806308551a531461014d5780632b7ac3f3146101785780632fbccc27146101a357806333790845146101ce5780633acefa20146102115780634a79d50c146102535780635e3044cb1461027e5780637150d8ae146102a957806388e687ea146102d45780638da5cb5b146102ff578063a0941da61461032a578063ae2e060b14610355578063b084c84114610371578063c7f015ba1461039c578063dfefadff146103b8578063e2aad4a0146103fd578063f008292014610428578063f422bc6814610453578063fa9b7d3314610498578063fc127741146104b4575b600080fd5b34801561012e57600080fd5b506101376104f2565b6040516101449190614389565b60405180910390f35b34801561015957600080fd5b50610162610518565b60405161016f9190614389565b60405180910390f35b34801561018457600080fd5b5061018d61053e565b60405161019a9190614389565b60405180910390f35b3480156101af57600080fd5b506101b8610564565b6040516101c5919061450b565b60405180910390f35b3480156101da57600080fd5b506101f560048036036101f09190810190613f35565b61056a565b6040516102089796959493929190614413565b60405180910390f35b34801561021d57600080fd5b5061023860048036036102339190810190613f35565b610be2565b60405161024a969594939291906143a4565b60405180910390f35b34801561025f57600080fd5b50610268611254565b6040516102759190614490565b60405180910390f35b34801561028a57600080fd5b506102936112f2565b6040516102a09190614389565b60405180910390f35b3480156102b557600080fd5b506102be611318565b6040516102cb9190614389565b60405180910390f35b3480156102e057600080fd5b506102e961133e565b6040516102f69190614389565b60405180910390f35b34801561030b57600080fd5b50610314611364565b6040516103219190614389565b60405180910390f35b34801561033657600080fd5b5061033f61138a565b60405161034c919061450b565b60405180910390f35b61036f600480360361036a9190810190613f5e565b611390565b005b34801561037d57600080fd5b50610386611e72565b604051610393919061450b565b60405180910390f35b6103b660048036036103b19190810190613f35565b611e78565b005b3480156103c457600080fd5b506103df60048036036103da9190810190613f35565b612971565b6040516103f49998979695949392919061459b565b60405180910390f35b34801561040957600080fd5b50610412612e8b565b60405161041f919061450b565b60405180910390f35b34801561043457600080fd5b5061043d612e91565b60405161044a919061450b565b60405180910390f35b34801561045f57600080fd5b5061047a60048036036104759190810190613f35565b612e97565b60405161048f9998979695949392919061459b565b60405180910390f35b6104b260048036036104ad9190810190613ef4565b6133b1565b005b3480156104c057600080fd5b506104db60048036036104d69190810190613f35565b6138c4565b6040516104e9929190614526565b60405180910390f35b601060009054906101000a900473ffffffffffffffffffffffffffffffffffffffff1681565b600e60009054906101000a900473ffffffffffffffffffffffffffffffffffffffff1681565b600c60009054906101000a900473ffffffffffffffffffffffffffffffffffffffff1681565b60045481565b60096020528060005260406000206000915090508060000160009054906101000a900473ffffffffffffffffffffffffffffffffffffffff16908060010154908060020154908060030160009054906101000a900473ffffffffffffffffffffffffffffffffffffffff1690806004018054600181600116156101000203166002900480601f01602080910402602001604051908101604052809291908181526020018280546001816001161561010002031660029004801561066e5780601f106106435761010080835404028352916020019161066e565b820191906000526020600020905b81548152906001019060200180831161065157829003601f168201915b50505050509080600501549080600601610120604051908101604052908160008201548152602001600182015481526020016002820160009054906101000a900473ffffffffffffffffffffffffffffffffffffffff1673ffffffffffffffffffffffffffffffffffffffff1673ffffffffffffffffffffffffffffffffffffffff168152602001600382015481526020016004820154815260200160058201548152602001600682016101806040519081016040529081600082015481526020016001820154815260200160028201548152602001600382018054600181600116156101000203166002900480601f0160208091040260200160405190810160405280929190818152602001828054600181600116156101000203166002900480156107dc5780601f106107b1576101008083540402835291602001916107dc565b820191906000526020600020905b8154815290600101906020018083116107bf57829003601f168201915b50505050508152602001600482018054600181600116156101000203166002900480601f01602080910402602001604051908101604052809291908181526020018280546001816001161561010002031660029004801561087e5780601f106108535761010080835404028352916020019161087e565b820191906000526020600020905b81548152906001019060200180831161086157829003601f168201915b50505050508152602001600582018054600181600116156101000203166002900480601f0160208091040260200160405190810160405280929190818152602001828054600181600116156101000203166002900480156109205780601f106108f557610100808354040283529160200191610920565b820191906000526020600020905b81548152906001019060200180831161090357829003601f168201915b50505050508152602001600682018054600181600116156101000203166002900480601f0160208091040260200160405190810160405280929190818152602001828054600181600116156101000203166002900480156109c25780601f10610997576101008083540402835291602001916109c2565b820191906000526020600020905b8154815290600101906020018083116109a557829003601f168201915b50505050508152602001600782018054600181600116156101000203166002900480601f016020809104026020016040519081016040528092919081815260200182805460018160011615610100020316600290048015610a645780601f10610a3957610100808354040283529160200191610a64565b820191906000526020600020905b815481529060010190602001808311610a4757829003601f168201915b505050505081526020016008820154815260200160098201548152602001600a82018054600181600116156101000203166002900480601f016020809104026020016040519081016040528092919081815260200182805460018160011615610100020316600290048015610b1a5780601f10610aef57610100808354040283529160200191610b1a565b820191906000526020600020905b815481529060010190602001808311610afd57829003601f168201915b50505050508152602001600b82018054600181600116156101000203166002900480601f016020809104026020016040519081016040528092919081815260200182805460018160011615610100020316600290048015610bbc5780601f10610b9157610100808354040283529160200191610bbc565b820191906000526020600020905b815481529060010190602001808311610b9f57829003601f168201915b505050505081525050815260200160128201548152602001601382015481525050905087565b600a6020528060005260406000206000915090508060000160009054906101000a900473ffffffffffffffffffffffffffffffffffffffff16908060010160009054906101000a900473ffffffffffffffffffffffffffffffffffffffff1690806002015490806003018054600181600116156101000203166002900480601f016020809104026020016040519081016040528092919081815260200182805460018160011615610100020316600290048015610ce05780601f10610cb557610100808354040283529160200191610ce0565b820191906000526020600020905b815481529060010190602001808311610cc357829003601f168201915b50505050509080600401549080600501610120604051908101604052908160008201548152602001600182015481526020016002820160009054906101000a900473ffffffffffffffffffffffffffffffffffffffff1673ffffffffffffffffffffffffffffffffffffffff1673ffffffffffffffffffffffffffffffffffffffff168152602001600382015481526020016004820154815260200160058201548152602001600682016101806040519081016040529081600082015481526020016001820154815260200160028201548152602001600382018054600181600116156101000203166002900480601f016020809104026020016040519081016040528092919081815260200182805460018160011615610100020316600290048015610e4e5780601f10610e2357610100808354040283529160200191610e4e565b820191906000526020600020905b815481529060010190602001808311610e3157829003601f168201915b50505050508152602001600482018054600181600116156101000203166002900480601f016020809104026020016040519081016040528092919081815260200182805460018160011615610100020316600290048015610ef05780601f10610ec557610100808354040283529160200191610ef0565b820191906000526020600020905b815481529060010190602001808311610ed357829003601f168201915b50505050508152602001600582018054600181600116156101000203166002900480601f016020809104026020016040519081016040528092919081815260200182805460018160011615610100020316600290048015610f925780601f10610f6757610100808354040283529160200191610f92565b820191906000526020600020905b815481529060010190602001808311610f7557829003601f168201915b50505050508152602001600682018054600181600116156101000203166002900480601f0160208091040260200160405190810160405280929190818152602001828054600181600116156101000203166002900480156110345780601f1061100957610100808354040283529160200191611034565b820191906000526020600020905b81548152906001019060200180831161101757829003601f168201915b50505050508152602001600782018054600181600116156101000203166002900480601f0160208091040260200160405190810160405280929190818152602001828054600181600116156101000203166002900480156110d65780601f106110ab576101008083540402835291602001916110d6565b820191906000526020600020905b8154815290600101906020018083116110b957829003601f168201915b505050505081526020016008820154815260200160098201548152602001600a82018054600181600116156101000203166002900480601f01602080910402602001604051908101604052809291908181526020018280546001816001161561010002031660029004801561118c5780601f106111615761010080835404028352916020019161118c565b820191906000526020600020905b81548152906001019060200180831161116f57829003601f168201915b50505050508152602001600b82018054600181600116156101000203166002900480601f01602080910402602001604051908101604052809291908181526020018280546001816001161561010002031660029004801561122e5780601f106112035761010080835404028352916020019161122e565b820191906000526020600020905b81548152906001019060200180831161121157829003601f168201915b505050505081525050815260200160128201548152602001601382015481525050905086565b60008054600181600116156101000203166002900480601f0160208091040260200160405190810160405280929190818152602001828054600181600116156101000203166002900480156112ea5780601f106112bf576101008083540402835291602001916112ea565b820191906000526020600020905b8154815290600101906020018083116112cd57829003601f168201915b505050505081565b601160009054906101000a900473ffffffffffffffffffffffffffffffffffffffff1681565b600f60009054906101000a900473ffffffffffffffffffffffffffffffffffffffff1681565b600b60009054906101000a900473ffffffffffffffffffffffffffffffffffffffff1681565b600d60009054906101000a900473ffffffffffffffffffffffffffffffffffffffff1681565b60055481565b611398613908565b60066000858152602001908152602001600020610120604051908101604052908160008201548152602001600182015481526020016002820160009054906101000a900473ffffffffffffffffffffffffffffffffffffffff1673ffffffffffffffffffffffffffffffffffffffff1673ffffffffffffffffffffffffffffffffffffffff168152602001600382015481526020016004820154815260200160058201548152602001600682016101806040519081016040529081600082015481526020016001820154815260200160028201548152602001600382018054600181600116156101000203166002900480601f0160208091040260200160405190810160405280929190818152602001828054600181600116156101000203166002900480156115095780601f106114de57610100808354040283529160200191611509565b820191906000526020600020905b8154815290600101906020018083116114ec57829003601f168201915b50505050508152602001600482018054600181600116156101000203166002900480601f0160208091040260200160405190810160405280929190818152602001828054600181600116156101000203166002900480156115ab5780601f10611580576101008083540402835291602001916115ab565b820191906000526020600020905b81548152906001019060200180831161158e57829003601f168201915b50505050508152602001600582018054600181600116156101000203166002900480601f01602080910402602001604051908101604052809291908181526020018280546001816001161561010002031660029004801561164d5780601f106116225761010080835404028352916020019161164d565b820191906000526020600020905b81548152906001019060200180831161163057829003601f168201915b50505050508152602001600682018054600181600116156101000203166002900480601f0160208091040260200160405190810160405280929190818152602001828054600181600116156101000203166002900480156116ef5780601f106116c4576101008083540402835291602001916116ef565b820191906000526020600020905b8154815290600101906020018083116116d257829003601f168201915b50505050508152602001600782018054600181600116156101000203166002900480601f0160208091040260200160405190810160405280929190818152602001828054600181600116156101000203166002900480156117915780601f1061176657610100808354040283529160200191611791565b820191906000526020600020905b81548152906001019060200180831161177457829003601f168201915b505050505081526020016008820154815260200160098201548152602001600a82018054600181600116156101000203166002900480601f0160208091040260200160405190810160405280929190818152602001828054600181600116156101000203166002900480156118475780601f1061181c57610100808354040283529160200191611847565b820191906000526020600020905b81548152906001019060200180831161182a57829003601f168201915b50505050508152602001600b82018054600181600116156101000203166002900480601f0160208091040260200160405190810160405280929190818152602001828054600181600116156101000203166002900480156118e95780601f106118be576101008083540402835291602001916118e9565b820191906000526020600020905b8154815290600101906020018083116118cc57829003601f168201915b505050505081525050815260200160128201548152602001601382015481525050905060008160400151905061191d613971565b60e0604051908101604052803373ffffffffffffffffffffffffffffffffffffffff168152602001868152602001858152602001846040015173ffffffffffffffffffffffffffffffffffffffff168152602001602060405190810160405280600081525081526020013481526020018481525090506001600454016004819055508060096000600454815260200190815260200160002060008201518160000160006101000a81548173ffffffffffffffffffffffffffffffffffffffff021916908373ffffffffffffffffffffffffffffffffffffffff160217905550602082015181600101556040820151816002015560608201518160030160006101000a81548173ffffffffffffffffffffffffffffffffffffffff021916908373ffffffffffffffffffffffffffffffffffffffff1602179055506080820151816004019080519060200190611a739291906139e2565b5060a0820151816005015560c082015181600601600082015181600001556020820151816001015560408201518160020160006101000a81548173ffffffffffffffffffffffffffffffffffffffff021916908373ffffffffffffffffffffffffffffffffffffffff160217905550606082015181600301556080820151816004015560a0820151816005015560c0820151816006016000820151816000015560208201518160010155604082015181600201556060820151816003019080519060200190611b439291906139e2565b506080820151816004019080519060200190611b609291906139e2565b5060a0820151816005019080519060200190611b7d9291906139e2565b5060c0820151816006019080519060200190611b9a9291906139e2565b5060e0820151816007019080519060200190611bb79291906139e2565b506101008201518160080155610120820151816009015561014082015181600a019080519060200190611beb9291906139e2565b5061016082015181600b019080519060200190611c099291906139e2565b50505060e0820151816012015561010082015181601301555050905050600183610100015101836101000181815250508260066000888152602001908152602001600020600082015181600001556020820151816001015560408201518160020160006101000a81548173ffffffffffffffffffffffffffffffffffffffff021916908373ffffffffffffffffffffffffffffffffffffffff160217905550606082015181600301556080820151816004015560a0820151816005015560c0820151816006016000820151816000015560208201518160010155604082015181600201556060820151816003019080519060200190611d099291906139e2565b506080820151816004019080519060200190611d269291906139e2565b5060a0820151816005019080519060200190611d439291906139e2565b5060c0820151816006019080519060200190611d609291906139e2565b5060e0820151816007019080519060200190611d7d9291906139e2565b506101008201518160080155610120820151816009015561014082015181600a019080519060200190611db19291906139e2565b5061016082015181600b019080519060200190611dcf9291906139e2565b50505060e0820151816012015561010082015181601301559050508173ffffffffffffffffffffffffffffffffffffffff166108fc349081150290604051600060405180830381858888f19350505050158015611e30573d6000803e3d6000fd5b507f4532740c68121fa82e0bf670df70dd083babc23b912a06ac17432931208d6bc88382604051611e629291906144d4565b60405180910390a1505050505050565b60015481565b611e80613908565b60066000838152602001908152602001600020610120604051908101604052908160008201548152602001600182015481526020016002820160009054906101000a900473ffffffffffffffffffffffffffffffffffffffff1673ffffffffffffffffffffffffffffffffffffffff1673ffffffffffffffffffffffffffffffffffffffff168152602001600382015481526020016004820154815260200160058201548152602001600682016101806040519081016040529081600082015481526020016001820154815260200160028201548152602001600382018054600181600116156101000203166002900480601f016020809104026020016040519081016040528092919081815260200182805460018160011615610100020316600290048015611ff15780601f10611fc657610100808354040283529160200191611ff1565b820191906000526020600020905b815481529060010190602001808311611fd457829003601f168201915b50505050508152602001600482018054600181600116156101000203166002900480601f0160208091040260200160405190810160405280929190818152602001828054600181600116156101000203166002900480156120935780601f1061206857610100808354040283529160200191612093565b820191906000526020600020905b81548152906001019060200180831161207657829003601f168201915b50505050508152602001600582018054600181600116156101000203166002900480601f0160208091040260200160405190810160405280929190818152602001828054600181600116156101000203166002900480156121355780601f1061210a57610100808354040283529160200191612135565b820191906000526020600020905b81548152906001019060200180831161211857829003601f168201915b50505050508152602001600682018054600181600116156101000203166002900480601f0160208091040260200160405190810160405280929190818152602001828054600181600116156101000203166002900480156121d75780601f106121ac576101008083540402835291602001916121d7565b820191906000526020600020905b8154815290600101906020018083116121ba57829003601f168201915b50505050508152602001600782018054600181600116156101000203166002900480601f0160208091040260200160405190810160405280929190818152602001828054600181600116156101000203166002900480156122795780601f1061224e57610100808354040283529160200191612279565b820191906000526020600020905b81548152906001019060200180831161225c57829003601f168201915b505050505081526020016008820154815260200160098201548152602001600a82018054600181600116156101000203166002900480601f01602080910402602001604051908101604052809291908181526020018280546001816001161561010002031660029004801561232f5780601f106123045761010080835404028352916020019161232f565b820191906000526020600020905b81548152906001019060200180831161231257829003601f168201915b50505050508152602001600b82018054600181600116156101000203166002900480601f0160208091040260200160405190810160405280929190818152602001828054600181600116156101000203166002900480156123d15780601f106123a6576101008083540402835291602001916123d1565b820191906000526020600020905b8154815290600101906020018083116123b457829003601f168201915b505050505081525050815260200160128201548152602001601382015481525050905060008160400151905033826040019073ffffffffffffffffffffffffffffffffffffffff16908173ffffffffffffffffffffffffffffffffffffffff16815250508160066000858152602001908152602001600020600082015181600001556020820151816001015560408201518160020160006101000a81548173ffffffffffffffffffffffffffffffffffffffff021916908373ffffffffffffffffffffffffffffffffffffffff160217905550606082015181600301556080820151816004015560a0820151816005015560c08201518160060160008201518160000155602082015181600101556040820151816002015560608201518160030190805190602001906125059291906139e2565b5060808201518160040190805190602001906125229291906139e2565b5060a082015181600501908051906020019061253f9291906139e2565b5060c082015181600601908051906020019061255c9291906139e2565b5060e08201518160070190805190602001906125799291906139e2565b506101008201518160080155610120820151816009015561014082015181600a0190805190602001906125ad9291906139e2565b5061016082015181600b0190805190602001906125cb9291906139e2565b50505060e0820151816012015561010082015181601301559050506125ee613a62565b60c0604051908101604052808373ffffffffffffffffffffffffffffffffffffffff1681526020013373ffffffffffffffffffffffffffffffffffffffff168152602001600081526020016020604051908101604052806000815250815260200134815260200184815250905060016005540160058190555080600a6000600554815260200190815260200160002060008201518160000160006101000a81548173ffffffffffffffffffffffffffffffffffffffff021916908373ffffffffffffffffffffffffffffffffffffffff16021790555060208201518160010160006101000a81548173ffffffffffffffffffffffffffffffffffffffff021916908373ffffffffffffffffffffffffffffffffffffffff1602179055506040820151816002015560608201518160030190805190602001906127319291906139e2565b506080820151816004015560a082015181600501600082015181600001556020820151816001015560408201518160020160006101000a81548173ffffffffffffffffffffffffffffffffffffffff021916908373ffffffffffffffffffffffffffffffffffffffff160217905550606082015181600301556080820151816004015560a0820151816005015560c08201518160060160008201518160000155602082015181600101556040820151816002015560608201518160030190805190602001906128019291906139e2565b50608082015181600401908051906020019061281e9291906139e2565b5060a082015181600501908051906020019061283b9291906139e2565b5060c08201518160060190805190602001906128589291906139e2565b5060e08201518160070190805190602001906128759291906139e2565b506101008201518160080155610120820151816009015561014082015181600a0190805190602001906128a99291906139e2565b5061016082015181600b0190805190602001906128c79291906139e2565b50505060e08201518160120155610100820151816013015550509050508173ffffffffffffffffffffffffffffffffffffffff166108fc349081150290604051600060405180830381858888f1935050505015801561292a573d6000803e3d6000fd5b507ff0c46a354093e90fc73af03337886e431fa16b9655aae8252793693ea22578d060015484336001604051612963949392919061454f565b60405180910390a150505050565b60076020528060005260406000206000915090508060000154908060010154908060020160009054906101000a900473ffffffffffffffffffffffffffffffffffffffff1690806003015490806004015490806005015490806006016101806040519081016040529081600082015481526020016001820154815260200160028201548152602001600382018054600181600116156101000203166002900480601f016020809104026020016040519081016040528092919081815260200182805460018160011615610100020316600290048015612a915780601f10612a6657610100808354040283529160200191612a91565b820191906000526020600020905b815481529060010190602001808311612a7457829003601f168201915b50505050508152602001600482018054600181600116156101000203166002900480601f016020809104026020016040519081016040528092919081815260200182805460018160011615610100020316600290048015612b335780601f10612b0857610100808354040283529160200191612b33565b820191906000526020600020905b815481529060010190602001808311612b1657829003601f168201915b50505050508152602001600582018054600181600116156101000203166002900480601f016020809104026020016040519081016040528092919081815260200182805460018160011615610100020316600290048015612bd55780601f10612baa57610100808354040283529160200191612bd5565b820191906000526020600020905b815481529060010190602001808311612bb857829003601f168201915b50505050508152602001600682018054600181600116156101000203166002900480601f016020809104026020016040519081016040528092919081815260200182805460018160011615610100020316600290048015612c775780601f10612c4c57610100808354040283529160200191612c77565b820191906000526020600020905b815481529060010190602001808311612c5a57829003601f168201915b50505050508152602001600782018054600181600116156101000203166002900480601f016020809104026020016040519081016040528092919081815260200182805460018160011615610100020316600290048015612d195780601f10612cee57610100808354040283529160200191612d19565b820191906000526020600020905b815481529060010190602001808311612cfc57829003601f168201915b505050505081526020016008820154815260200160098201548152602001600a82018054600181600116156101000203166002900480601f016020809104026020016040519081016040528092919081815260200182805460018160011615610100020316600290048015612dcf5780601f10612da457610100808354040283529160200191612dcf565b820191906000526020600020905b815481529060010190602001808311612db257829003601f168201915b50505050508152602001600b82018054600181600116156101000203166002900480601f016020809104026020016040519081016040528092919081815260200182805460018160011615610100020316600290048015612e715780601f10612e4657610100808354040283529160200191612e71565b820191906000526020600020905b815481529060010190602001808311612e5457829003601f168201915b505050505081525050908060120154908060130154905089565b60025481565b60035481565b60066020528060005260406000206000915090508060000154908060010154908060020160009054906101000a900473ffffffffffffffffffffffffffffffffffffffff1690806003015490806004015490806005015490806006016101806040519081016040529081600082015481526020016001820154815260200160028201548152602001600382018054600181600116156101000203166002900480601f016020809104026020016040519081016040528092919081815260200182805460018160011615610100020316600290048015612fb75780601f10612f8c57610100808354040283529160200191612fb7565b820191906000526020600020905b815481529060010190602001808311612f9a57829003601f168201915b50505050508152602001600482018054600181600116156101000203166002900480601f0160208091040260200160405190810160405280929190818152602001828054600181600116156101000203166002900480156130595780601f1061302e57610100808354040283529160200191613059565b820191906000526020600020905b81548152906001019060200180831161303c57829003601f168201915b50505050508152602001600582018054600181600116156101000203166002900480601f0160208091040260200160405190810160405280929190818152602001828054600181600116156101000203166002900480156130fb5780601f106130d0576101008083540402835291602001916130fb565b820191906000526020600020905b8154815290600101906020018083116130de57829003601f168201915b50505050508152602001600682018054600181600116156101000203166002900480601f01602080910402602001604051908101604052809291908181526020018280546001816001161561010002031660029004801561319d5780601f106131725761010080835404028352916020019161319d565b820191906000526020600020905b81548152906001019060200180831161318057829003601f168201915b50505050508152602001600782018054600181600116156101000203166002900480601f01602080910402602001604051908101604052809291908181526020018280546001816001161561010002031660029004801561323f5780601f106132145761010080835404028352916020019161323f565b820191906000526020600020905b81548152906001019060200180831161322257829003601f168201915b505050505081526020016008820154815260200160098201548152602001600a82018054600181600116156101000203166002900480601f0160208091040260200160405190810160405280929190818152602001828054600181600116156101000203166002900480156132f55780601f106132ca576101008083540402835291602001916132f5565b820191906000526020600020905b8154815290600101906020018083116132d857829003601f168201915b50505050508152602001600b82018054600181600116156101000203166002900480601f0160208091040260200160405190810160405280929190818152602001828054600181600116156101000203166002900480156133975780601f1061336c57610100808354040283529160200191613397565b820191906000526020600020905b81548152906001019060200180831161337a57829003601f168201915b505050505081525050908060120154908060130154905089565b60016000815480929190600101919050555060015481600001818152505080600660006001548152602001908152602001600020600082015181600001556020820151816001015560408201518160020160006101000a81548173ffffffffffffffffffffffffffffffffffffffff021916908373ffffffffffffffffffffffffffffffffffffffff160217905550606082015181600301556080820151816004015560a0820151816005015560c08201518160060160008201518160000155602082015181600101556040820151816002015560608201518160030190805190602001906134a19291906139e2565b5060808201518160040190805190602001906134be9291906139e2565b5060a08201518160050190805190602001906134db9291906139e2565b5060c08201518160060190805190602001906134f89291906139e2565b5060e08201518160070190805190602001906135159291906139e2565b506101008201518160080155610120820151816009015561014082015181600a0190805190602001906135499291906139e2565b5061016082015181600b0190805190602001906135679291906139e2565b50505060e08201518160120155610100820151816013015590505061358a613a62565b60c060405190810160405280836040015173ffffffffffffffffffffffffffffffffffffffff168152602001836040015173ffffffffffffffffffffffffffffffffffffffff16815260200160008152602001602060405190810160405280600081525081526020016000815260200183815250905060016005540160058190555080600a6000600554815260200190815260200160002060008201518160000160006101000a81548173ffffffffffffffffffffffffffffffffffffffff021916908373ffffffffffffffffffffffffffffffffffffffff16021790555060208201518160010160006101000a81548173ffffffffffffffffffffffffffffffffffffffff021916908373ffffffffffffffffffffffffffffffffffffffff1602179055506040820151816002015560608201518160030190805190602001906136d69291906139e2565b506080820151816004015560a082015181600501600082015181600001556020820151816001015560408201518160020160006101000a81548173ffffffffffffffffffffffffffffffffffffffff021916908373ffffffffffffffffffffffffffffffffffffffff160217905550606082015181600301556080820151816004015560a0820151816005015560c08201518160060160008201518160000155602082015181600101556040820151816002015560608201518160030190805190602001906137a69291906139e2565b5060808201518160040190805190602001906137c39291906139e2565b5060a08201518160050190805190602001906137e09291906139e2565b5060c08201518160060190805190602001906137fd9291906139e2565b5060e082015181600701908051906020019061381a9291906139e2565b506101008201518160080155610120820151816009015561014082015181600a01908051906020019061384e9291906139e2565b5061016082015181600b01908051906020019061386c9291906139e2565b50505060e08201518160120155610100820151816013015550509050507f185bd9aeca97c1f1ecdd5bb7db73a08f924704bb2383c37438cae14777f0b280826040516138b891906144b2565b60405180910390a15050565b60086020528060005260406000206000915090508060000154908060010160009054906101000a900473ffffffffffffffffffffffffffffffffffffffff16905082565b610280604051908101604052806000815260200160008152602001600073ffffffffffffffffffffffffffffffffffffffff16815260200160008152602001600081526020016000815260200161395d613acc565b815260200160008152602001600081525090565b61034060405190810160405280600073ffffffffffffffffffffffffffffffffffffffff1681526020016000815260200160008152602001600073ffffffffffffffffffffffffffffffffffffffff16815260200160608152602001600081526020016139dc613b2e565b81525090565b828054600181600116156101000203166002900490600052602060002090601f016020900481019282601f10613a2357805160ff1916838001178555613a51565b82800160010185558215613a51579182015b82811115613a50578251825591602001919060010190613a35565b5b509050613a5e9190613b97565b5090565b61032060405190810160405280600073ffffffffffffffffffffffffffffffffffffffff168152602001600073ffffffffffffffffffffffffffffffffffffffff168152602001600081526020016060815260200160008152602001613ac6613b2e565b81525090565b610180604051908101604052806000815260200160008152602001600081526020016060815260200160608152602001606081526020016060815260200160608152602001600081526020016000815260200160608152602001606081525090565b610280604051908101604052806000815260200160008152602001600073ffffffffffffffffffffffffffffffffffffffff168152602001600081526020016000815260200160008152602001613b83613acc565b815260200160008152602001600081525090565b613bb991905b80821115613bb5576000816000905550600101613b9d565b5090565b90565b6000613bc882356146ed565b905092915050565b600082601f8301121515613be357600080fd5b8135613bf6613bf18261465c565b61462f565b91508082526020830160208301858383011115613c1257600080fd5b613c1d83828461473f565b50505092915050565b60006101208284031215613c3957600080fd5b613c4461012061462f565b90506000613c5484828501613ee0565b6000830152506020613c6884828501613ee0565b6020830152506040613c7c84828501613bbc565b6040830152506060613c9084828501613ee0565b6060830152506080613ca484828501613ee0565b60808301525060a0613cb884828501613ee0565b60a08301525060c082013567ffffffffffffffff811115613cd857600080fd5b613ce484828501613d1a565b60c08301525060e0613cf884828501613ee0565b60e083015250610100613d0d84828501613ee0565b6101008301525092915050565b60006101808284031215613d2d57600080fd5b613d3861018061462f565b90506000613d4884828501613ee0565b6000830152506020613d5c84828501613ee0565b6020830152506040613d7084828501613ee0565b604083015250606082013567ffffffffffffffff811115613d9057600080fd5b613d9c84828501613bd0565b606083015250608082013567ffffffffffffffff811115613dbc57600080fd5b613dc884828501613bd0565b60808301525060a082013567ffffffffffffffff811115613de857600080fd5b613df484828501613bd0565b60a08301525060c082013567ffffffffffffffff811115613e1457600080fd5b613e2084828501613bd0565b60c08301525060e082013567ffffffffffffffff811115613e4057600080fd5b613e4c84828501613bd0565b60e083015250610100613e6184828501613ee0565b61010083015250610120613e7784828501613ee0565b6101208301525061014082013567ffffffffffffffff811115613e9957600080fd5b613ea584828501613bd0565b6101408301525061016082013567ffffffffffffffff811115613ec757600080fd5b613ed384828501613bd0565b6101608301525092915050565b6000613eec82356146ff565b905092915050565b600060208284031215613f0657600080fd5b600082013567ffffffffffffffff811115613f2057600080fd5b613f2c84828501613c26565b91505092915050565b600060208284031215613f4757600080fd5b6000613f5584828501613ee0565b91505092915050565b600080600060608486031215613f7357600080fd5b6000613f8186828701613ee0565b9350506020613f9286828701613ee0565b9250506040613fa386828701613ee0565b9150509250925092565b613fb681614709565b82525050565b613fc5816146a5565b82525050565b613fd481614693565b82525050565b613fe3816146b7565b82525050565b6000613ff482614688565b80845261400881602086016020860161474e565b61401181614781565b602085010191505092915050565b600060e0830160008301516140376000860182613fcb565b50602083015161404a602086018261437a565b50604083015161405d604086018261437a565b5060608301516140706060860182613fbc565b50608083015184820360808601526140888282613fe9565b91505060a083015161409d60a086018261437a565b5060c083015184820360c08601526140b58282614187565b9150508091505092915050565b6000610120830160008301516140db600086018261437a565b5060208301516140ee602086018261437a565b5060408301516141016040860182613fbc565b506060830151614114606086018261437a565b506080830151614127608086018261437a565b5060a083015161413a60a086018261437a565b5060c083015184820360c0860152614152828261424c565b91505060e083015161416760e086018261437a565b5061010083015161417c61010086018261437a565b508091505092915050565b6000610120830160008301516141a0600086018261437a565b5060208301516141b3602086018261437a565b5060408301516141c66040860182613fbc565b5060608301516141d9606086018261437a565b5060808301516141ec608086018261437a565b5060a08301516141ff60a086018261437a565b5060c083015184820360c0860152614217828261424c565b91505060e083015161422c60e086018261437a565b5061010083015161424161010086018261437a565b508091505092915050565b600061018083016000830151614265600086018261437a565b506020830151614278602086018261437a565b50604083015161428b604086018261437a565b50606083015184820360608601526142a38282613fe9565b915050608083015184820360808601526142bd8282613fe9565b91505060a083015184820360a08601526142d78282613fe9565b91505060c083015184820360c08601526142f18282613fe9565b91505060e083015184820360e086015261430b8282613fe9565b91505061010083015161432261010086018261437a565b5061012083015161433761012086018261437a565b506101408301518482036101408601526143518282613fe9565b91505061016083015184820361016086015261436d8282613fe9565b9150508091505092915050565b614383816146e3565b82525050565b600060208201905061439e6000830184613fcb565b92915050565b600060c0820190506143b96000830189613fcb565b6143c66020830188613fcb565b6143d3604083018761437a565b81810360608301526143e58186613fe9565b90506143f4608083018561437a565b81810360a08301526144068184614187565b9050979650505050505050565b600060e082019050614428600083018a613fcb565b614435602083018961437a565b614442604083018861437a565b61444f6060830187613fbc565b81810360808301526144618186613fe9565b905061447060a083018561437a565b81810360c08301526144828184614187565b905098975050505050505050565b600060208201905081810360008301526144aa8184613fe9565b905092915050565b600060208201905081810360008301526144cc81846140c2565b905092915050565b600060408201905081810360008301526144ee81856140c2565b90508181036020830152614502818461401f565b90509392505050565b6000602082019050614520600083018461437a565b92915050565b600060408201905061453b600083018561437a565b6145486020830184613fbc565b9392505050565b6000608082019050614564600083018761437a565b818103602083015261457681866140c2565b90506145856040830185613fad565b6145926060830184613fda565b95945050505050565b6000610120820190506145b1600083018c61437a565b6145be602083018b61437a565b6145cb604083018a613fbc565b6145d8606083018961437a565b6145e5608083018861437a565b6145f260a083018761437a565b81810360c0830152614604818661424c565b905061461360e083018561437a565b61462161010083018461437a565b9a9950505050505050505050565b6000604051905081810181811067ffffffffffffffff8211171561465257600080fd5b8060405250919050565b600067ffffffffffffffff82111561467357600080fd5b601f19601f8301169050602081019050919050565b600081519050919050565b600061469e826146c3565b9050919050565b60006146b0826146c3565b9050919050565b60008115159050919050565b600073ffffffffffffffffffffffffffffffffffffffff82169050919050565b6000819050919050565b60006146f8826146c3565b9050919050565b6000819050919050565b60006147148261471b565b9050919050565b60006147268261472d565b9050919050565b6000614738826146c3565b9050919050565b82818337600083830152505050565b60005b8381101561476c578082015181840152602081019050614751565b8381111561477b576000848401525b50505050565b6000601f19601f830116905091905056fea265627a7a72305820a85b32499ffa2ff13ba0e19b8711d0bd582eeddbeecbb18bddc27c934a2151736c6578706572696d656e74616cf50037",
  "source": "pragma solidity ^0.5.0;\r\npragma experimental ABIEncoderV2;\r\n\r\ncontract IPManager {\r\n    //System Information\r\n    string public title;\r\n    uint public patentCount = 0;\r\n    uint public applicationCount =0;\r\n    uint public verifyCount = 0;\r\n    uint public licenseCount = 0;\r\n    uint public ownershipCount = 0;\r\n\r\n    //Blockchain Databases\r\n    mapping(uint => PatentContainer) public patents;//For patents\r\n    mapping(uint => PatentContainer) public applications;//For applications\r\n    mapping(uint => Verify) public verifies;//For Verfications\r\n    mapping(uint => License) public licenses;//For License\r\n    mapping(uint => Ownership) public ownerships; //For record privious ownwerships\r\n\r\n    //Members of the system\r\n    address public applicant;\r\n    address public verifier;\r\n    address public owner;\r\n\r\n    address public seller;\r\n    address public buyer;\r\n    \r\n    address public licensor;\r\n    address public licensee;\r\n\r\n    //Constructor of the contract\r\n    constructor() public {\r\n        title = \"IP Manager\";\r\n    }\r\n\r\n    //Data For Patent Applications\r\n    struct Patent {\r\n        uint grant_no;\r\n        uint256 grant_date;\r\n        uint application_no;\r\n        string applicant;\r\n        string inventor;\r\n        string publication_number;\r\n        string registerd_country;\r\n        string description;\r\n        uint256 application_date;\r\n        uint256 publication_date;\r\n        string publication_kind;\r\n        string name;\r\n    }\r\n\r\n    struct PatentContainer {\r\n        //This used becuse Struct can have only 16 local variables\r\n        //So patent data isolate from variables need to run program\r\n        uint id;\r\n        uint version;\r\n        address payable owner;\r\n        uint price_assign;\r\n        uint price_license;\r\n        uint verifierPayment;\r\n        Patent patent;\r\n        uint max_license_count;\r\n        uint licenseCount;\r\n    }\r\n\r\n    struct Verify {\r\n        uint applicationId;\r\n        address payable verifier;\r\n    }\r\n\r\n    struct License {\r\n        address licensee;\r\n        uint256 license_date;\r\n        uint256 license_exp_date;\r\n        address payable licensor;\r\n        string terms_conditions;\r\n        uint paid_amount;\r\n        PatentContainer patentContainer;\r\n    }\r\n\r\n    struct Ownership {\r\n        address assigner;\r\n        address assignee;\r\n        uint ownership_start_date;\r\n        string terms_conditions;\r\n        uint paid_amount;\r\n        PatentContainer patentContainer;\r\n    }\r\n\r\n    //List of Events\r\n    event PatentCreated(PatentContainer patentContainer);\r\n    event ApplicationCreated(PatentContainer patentContainer);\r\n    event VerifyCreated(PatentContainer patentContainer, Verify verify);\r\n    event PatentPurchased(uint patentCount, PatentContainer patentContainer, address sender, bool status);\r\n    event PatentLicensed(PatentContainer patentContainer, License license);\r\n\r\n    //Appling for Patent\r\n    function applyForPatent(PatentContainer memory new_patent_container) public payable {\r\n        //Validate Inputs\r\n        // Required\r\n        /*require(bytes(new_patent_container.patent.name).length > 0);\r\n        require(bytes(new_patent_container.patent.description).length > 0);\r\n        require(bytes(new_patent_container.patent.publication_kind).length > 0);\r\n        require(bytes(new_patent_container.patent.registerd_country).length > 0);\r\n        require(bytes(new_patent_container.patent.publication_number).length > 0);\r\n        require(bytes(new_patent_container.patent.inventor).length > 0);\r\n        require(bytes(new_patent_container.patent.applicant).length > 0);*/\r\n\r\n        //Create New application\r\n        patentCount ++;\r\n        new_patent_container.id = patentCount;\r\n        patents[patentCount] = new_patent_container;\r\n\r\n        //Set ownership data\r\n        Ownership memory ownership = Ownership(new_patent_container.owner,new_patent_container.owner, 0, '', 0, new_patent_container);\r\n        ownershipCount = ownershipCount+1;\r\n        ownerships[ownershipCount] = ownership;\r\n\r\n        // Trigger an event\r\n        emit ApplicationCreated(new_patent_container);\r\n    }\r\n\r\n    //Verify Application\r\n    /*function verifyPatent(PatentContainer memory patent_container, Verify memory verify) public payable {\r\n        verify.verifier.transfer(patent_container.verifierPayment);\r\n\r\n        emit VerifyCreated(patent_container, verify);\r\n    }*/\r\n\r\n    \r\n\r\n    //event PatentPurchased();\r\n\r\n    /*function createPatent(PatentContainer memory new_patent_container) public {\r\n        // Required\r\n        require(bytes(new_patent_container.patent.name).length > 0);\r\n        require(bytes(new_patent_container.patent.description).length > 0);\r\n        require(bytes(new_patent_container.patent.publication_kind).length > 0);\r\n        require(bytes(new_patent_container.patent.registerd_country).length > 0);\r\n        require(bytes(new_patent_container.patent.publication_number).length > 0);\r\n        require(bytes(new_patent_container.patent.inventor).length > 0);\r\n        require(bytes(new_patent_container.patent.applicant).length > 0);\r\n\r\n        //require(bytes(_grant_no).length > 0);\r\n\r\n        //Check Simileritis\r\n        //Not Implemented\r\n\r\n        //if similer found check owner is same then its a version\r\n        //Not Implemented\r\n\r\n        //if not not allowed to register\r\n        // Increment patent count\r\n        patentCount ++;\r\n\r\n        // Create the patent\r\n        new_patent_container.id = patentCount;\r\n        patents[patentCount] = new_patent_container;\r\n\r\n        // Trigger an event\r\n        emit PatentCreated(new_patent_container);\r\n    }*/\r\n\r\n    //function \r\n\r\n\r\n    /*function findSimilerPatents(PatentContainer memory new_patent_container) private {\r\n        \r\n    }*/\r\n\r\n    function purchasePatent(uint id) public payable {\r\n        // Fetch the patent\r\n        PatentContainer memory patent = patents[id];\r\n        // Fetch the owner\r\n        address payable seller = patent.owner;\r\n        // Make sure the patent has a valid id\r\n        /*require(patent.id > 0 && patent.id <= patentCount);\r\n        // Require that there is enough Ether in the transaction\r\n        //require(msg.value >= patent.price_assign);\r\n        // Require that Patent is availabe to sell\r\n        require(patent.price_assign > 0);\r\n        // Require that the patent has not been purchased already\r\n        //require(!patent.purchased);\r\n        // Require that the buyer is not the seller\r\n        require(seller != msg.sender);*/\r\n        // Transfer ownership to the buyer\r\n        patent.owner = msg.sender;\r\n\r\n        // Mark as purchased\r\n        //patent.purchased = true;\r\n        \r\n        // Update the patent\r\n        patents[id] = patent;\r\n        //Set ownership data\r\n        Ownership memory ownership = Ownership(seller,msg.sender, 0, '', msg.value, patent);\r\n        ownershipCount = ownershipCount+1;\r\n        ownerships[ownershipCount] = ownership;\r\n        // Pay the seller by sending them Ether\r\n        address(seller).transfer(msg.value);\r\n        // Trigger an event\r\n        emit PatentPurchased(patentCount, patent, msg.sender, true);\r\n    }\r\n\r\n\r\n    function licensePatent(uint id, uint256 license_date, uint256 license_exp_date) public payable {\r\n        // Fetch the patent\r\n        PatentContainer memory patent = patents[id];\r\n        // Fetch the owner\r\n        address payable licenser = patent.owner;\r\n        // Make sure the patent has a valid id\r\n        /*require(patent.id > 0 && patent.id <= patentCount);\r\n        // Require that there is enough Ether in the transaction\r\n        require(msg.value >= patent.price_license);\r\n        // Require that Patent is availabe to license\r\n        require(patent.price_license > 0);\r\n        // Require that the licenser is not the licensee\r\n        require(licenser != msg.sender);\r\n        //Require not excceding max licnesee count\r\n        require(patent.max_license_count< patent.licenseCount);*/\r\n        //Create License Record\r\n        License memory license = License(msg.sender, license_date, license_exp_date, patent.owner, '', msg.value, patent);\r\n        //Update licenses map count\r\n        licenseCount = licenseCount + 1;\r\n        //Add License Record to Map\r\n        licenses[licenseCount] = license;\r\n        // Update the patent\r\n        patent.licenseCount = patent.licenseCount + 1;\r\n        patents[id] = patent;\r\n        // Pay the seller by sending them Ether\r\n        address(licenser).transfer(msg.value);\r\n        // Trigger an event\r\n        emit PatentLicensed(patent, license);\r\n    }\r\n}\r\n\r\n",
  "sourcePath": "D:/Blockchain_v2/marketplace/src/contracts/IPManager.sol",
  "compiler": {
    "name": "solc",
    "version": "0.5.0+commit.1d4f565a.Emscripten.clang"
  },
  "schemaVersion": "3.0.2",
  "updatedAt": "2024-05-20T07:59:49.617Z",
  "devdoc": {
    "methods": {}
  },
  "userdoc": {
    "methods": {}
  }
}